{
  "contractName": "BNCalcolatoreOnChain",
  "abi": [
    {
      "inputs": [],
      "stateMutability": "nonpayable",
      "type": "constructor"
    },
    {
      "inputs": [],
      "name": "AccessControlBadConfirmation",
      "type": "error"
    },
    {
      "inputs": [
        {
          "internalType": "address",
          "name": "account",
          "type": "address"
        },
        {
          "internalType": "bytes32",
          "name": "neededRole",
          "type": "bytes32"
        }
      ],
      "name": "AccessControlUnauthorizedAccount",
      "type": "error"
    },
    {
      "anonymous": false,
      "inputs": [
        {
          "indexed": true,
          "internalType": "bytes32",
          "name": "role",
          "type": "bytes32"
        },
        {
          "indexed": true,
          "internalType": "bytes32",
          "name": "previousAdminRole",
          "type": "bytes32"
        },
        {
          "indexed": true,
          "internalType": "bytes32",
          "name": "newAdminRole",
          "type": "bytes32"
        }
      ],
      "name": "RoleAdminChanged",
      "type": "event"
    },
    {
      "anonymous": false,
      "inputs": [
        {
          "indexed": true,
          "internalType": "bytes32",
          "name": "role",
          "type": "bytes32"
        },
        {
          "indexed": true,
          "internalType": "address",
          "name": "account",
          "type": "address"
        },
        {
          "indexed": true,
          "internalType": "address",
          "name": "sender",
          "type": "address"
        }
      ],
      "name": "RoleGranted",
      "type": "event"
    },
    {
      "anonymous": false,
      "inputs": [
        {
          "indexed": true,
          "internalType": "bytes32",
          "name": "role",
          "type": "bytes32"
        },
        {
          "indexed": true,
          "internalType": "address",
          "name": "account",
          "type": "address"
        },
        {
          "indexed": true,
          "internalType": "address",
          "name": "sender",
          "type": "address"
        }
      ],
      "name": "RoleRevoked",
      "type": "event"
    },
    {
      "anonymous": false,
      "inputs": [
        {
          "indexed": true,
          "internalType": "uint256",
          "name": "id",
          "type": "uint256"
        },
        {
          "indexed": true,
          "internalType": "address",
          "name": "mittente",
          "type": "address"
        },
        {
          "indexed": true,
          "internalType": "address",
          "name": "corriere",
          "type": "address"
        }
      ],
      "name": "SpedizioneCreata",
      "type": "event"
    },
    {
      "anonymous": false,
      "inputs": [
        {
          "indexed": true,
          "internalType": "uint256",
          "name": "id",
          "type": "uint256"
        },
        {
          "indexed": true,
          "internalType": "address",
          "name": "corriere",
          "type": "address"
        },
        {
          "indexed": false,
          "internalType": "uint256",
          "name": "importo",
          "type": "uint256"
        }
      ],
      "name": "SpedizionePagata",
      "type": "event"
    },
    {
      "inputs": [],
      "name": "DEFAULT_ADMIN_ROLE",
      "outputs": [
        {
          "internalType": "bytes32",
          "name": "",
          "type": "bytes32"
        }
      ],
      "stateMutability": "view",
      "type": "function",
      "constant": true
    },
    {
      "inputs": [],
      "name": "PRECISIONE",
      "outputs": [
        {
          "internalType": "uint256",
          "name": "",
          "type": "uint256"
        }
      ],
      "stateMutability": "view",
      "type": "function",
      "constant": true
    },
    {
      "inputs": [],
      "name": "RUOLO_MITTENTE",
      "outputs": [
        {
          "internalType": "bytes32",
          "name": "",
          "type": "bytes32"
        }
      ],
      "stateMutability": "view",
      "type": "function",
      "constant": true
    },
    {
      "inputs": [],
      "name": "RUOLO_ORACOLO",
      "outputs": [
        {
          "internalType": "bytes32",
          "name": "",
          "type": "bytes32"
        }
      ],
      "stateMutability": "view",
      "type": "function",
      "constant": true
    },
    {
      "inputs": [],
      "name": "RUOLO_SENSORE",
      "outputs": [
        {
          "internalType": "bytes32",
          "name": "",
          "type": "bytes32"
        }
      ],
      "stateMutability": "view",
      "type": "function",
      "constant": true
    },
    {
      "inputs": [],
      "name": "SOGLIA_PROBABILITA",
      "outputs": [
        {
          "internalType": "uint8",
          "name": "",
          "type": "uint8"
        }
      ],
      "stateMutability": "view",
      "type": "function",
      "constant": true
    },
    {
      "inputs": [],
      "name": "_contatoreIdSpedizione",
      "outputs": [
        {
          "internalType": "uint256",
          "name": "",
          "type": "uint256"
        }
      ],
      "stateMutability": "view",
      "type": "function",
      "constant": true
    },
    {
      "inputs": [],
      "name": "cpt_E1",
      "outputs": [
        {
          "internalType": "uint256",
          "name": "p_FF",
          "type": "uint256"
        },
        {
          "internalType": "uint256",
          "name": "p_FT",
          "type": "uint256"
        },
        {
          "internalType": "uint256",
          "name": "p_TF",
          "type": "uint256"
        },
        {
          "internalType": "uint256",
          "name": "p_TT",
          "type": "uint256"
        }
      ],
      "stateMutability": "view",
      "type": "function",
      "constant": true
    },
    {
      "inputs": [],
      "name": "cpt_E2",
      "outputs": [
        {
          "internalType": "uint256",
          "name": "p_FF",
          "type": "uint256"
        },
        {
          "internalType": "uint256",
          "name": "p_FT",
          "type": "uint256"
        },
        {
          "internalType": "uint256",
          "name": "p_TF",
          "type": "uint256"
        },
        {
          "internalType": "uint256",
          "name": "p_TT",
          "type": "uint256"
        }
      ],
      "stateMutability": "view",
      "type": "function",
      "constant": true
    },
    {
      "inputs": [],
      "name": "cpt_E3",
      "outputs": [
        {
          "internalType": "uint256",
          "name": "p_FF",
          "type": "uint256"
        },
        {
          "internalType": "uint256",
          "name": "p_FT",
          "type": "uint256"
        },
        {
          "internalType": "uint256",
          "name": "p_TF",
          "type": "uint256"
        },
        {
          "internalType": "uint256",
          "name": "p_TT",
          "type": "uint256"
        }
      ],
      "stateMutability": "view",
      "type": "function",
      "constant": true
    },
    {
      "inputs": [],
      "name": "cpt_E4",
      "outputs": [
        {
          "internalType": "uint256",
          "name": "p_FF",
          "type": "uint256"
        },
        {
          "internalType": "uint256",
          "name": "p_FT",
          "type": "uint256"
        },
        {
          "internalType": "uint256",
          "name": "p_TF",
          "type": "uint256"
        },
        {
          "internalType": "uint256",
          "name": "p_TT",
          "type": "uint256"
        }
      ],
      "stateMutability": "view",
      "type": "function",
      "constant": true
    },
    {
      "inputs": [],
      "name": "cpt_E5",
      "outputs": [
        {
          "internalType": "uint256",
          "name": "p_FF",
          "type": "uint256"
        },
        {
          "internalType": "uint256",
          "name": "p_FT",
          "type": "uint256"
        },
        {
          "internalType": "uint256",
          "name": "p_TF",
          "type": "uint256"
        },
        {
          "internalType": "uint256",
          "name": "p_TT",
          "type": "uint256"
        }
      ],
      "stateMutability": "view",
      "type": "function",
      "constant": true
    },
    {
      "inputs": [
        {
          "internalType": "bytes32",
          "name": "role",
          "type": "bytes32"
        }
      ],
      "name": "getRoleAdmin",
      "outputs": [
        {
          "internalType": "bytes32",
          "name": "",
          "type": "bytes32"
        }
      ],
      "stateMutability": "view",
      "type": "function",
      "constant": true
    },
    {
      "inputs": [
        {
          "internalType": "bytes32",
          "name": "role",
          "type": "bytes32"
        },
        {
          "internalType": "address",
          "name": "account",
          "type": "address"
        }
      ],
      "name": "grantRole",
      "outputs": [],
      "stateMutability": "nonpayable",
      "type": "function"
    },
    {
      "inputs": [
        {
          "internalType": "bytes32",
          "name": "role",
          "type": "bytes32"
        },
        {
          "internalType": "address",
          "name": "account",
          "type": "address"
        }
      ],
      "name": "hasRole",
      "outputs": [
        {
          "internalType": "bool",
          "name": "",
          "type": "bool"
        }
      ],
      "stateMutability": "view",
      "type": "function",
      "constant": true
    },
    {
      "inputs": [],
      "name": "p_F1_T",
      "outputs": [
        {
          "internalType": "uint256",
          "name": "",
          "type": "uint256"
        }
      ],
      "stateMutability": "view",
      "type": "function",
      "constant": true
    },
    {
      "inputs": [],
      "name": "p_F2_T",
      "outputs": [
        {
          "internalType": "uint256",
          "name": "",
          "type": "uint256"
        }
      ],
      "stateMutability": "view",
      "type": "function",
      "constant": true
    },
    {
      "inputs": [
        {
          "internalType": "bytes32",
          "name": "role",
          "type": "bytes32"
        },
        {
          "internalType": "address",
          "name": "callerConfirmation",
          "type": "address"
        }
      ],
      "name": "renounceRole",
      "outputs": [],
      "stateMutability": "nonpayable",
      "type": "function"
    },
    {
      "inputs": [
        {
          "internalType": "bytes32",
          "name": "role",
          "type": "bytes32"
        },
        {
          "internalType": "address",
          "name": "account",
          "type": "address"
        }
      ],
      "name": "revokeRole",
      "outputs": [],
      "stateMutability": "nonpayable",
      "type": "function"
    },
    {
      "inputs": [
        {
          "internalType": "uint256",
          "name": "",
          "type": "uint256"
        }
      ],
      "name": "spedizioni",
      "outputs": [
        {
          "internalType": "address",
          "name": "mittente",
          "type": "address"
        },
        {
          "internalType": "address",
          "name": "corriere",
          "type": "address"
        },
        {
          "internalType": "uint256",
          "name": "importoPagamento",
          "type": "uint256"
        },
        {
          "internalType": "enum BNCalcolatoreOnChain.StatoSpedizione",
          "name": "stato",
          "type": "uint8"
        },
        {
          "components": [
            {
              "internalType": "bool",
              "name": "E1_ricevuta",
              "type": "bool"
            },
            {
              "internalType": "bool",
              "name": "E2_ricevuta",
              "type": "bool"
            },
            {
              "internalType": "bool",
              "name": "E3_ricevuta",
              "type": "bool"
            },
            {
              "internalType": "bool",
              "name": "E4_ricevuta",
              "type": "bool"
            },
            {
              "internalType": "bool",
              "name": "E5_ricevuta",
              "type": "bool"
            },
            {
              "internalType": "bool",
              "name": "E1_valore",
              "type": "bool"
            },
            {
              "internalType": "bool",
              "name": "E2_valore",
              "type": "bool"
            },
            {
              "internalType": "bool",
              "name": "E3_valore",
              "type": "bool"
            },
            {
              "internalType": "bool",
              "name": "E4_valore",
              "type": "bool"
            },
            {
              "internalType": "bool",
              "name": "E5_valore",
              "type": "bool"
            }
          ],
          "internalType": "struct BNCalcolatoreOnChain.StatoEvidenze",
          "name": "evidenze",
          "type": "tuple"
        }
      ],
      "stateMutability": "view",
      "type": "function",
      "constant": true
    },
    {
      "inputs": [
        {
          "internalType": "bytes4",
          "name": "interfaceId",
          "type": "bytes4"
        }
      ],
      "name": "supportsInterface",
      "outputs": [
        {
          "internalType": "bool",
          "name": "",
          "type": "bool"
        }
      ],
      "stateMutability": "view",
      "type": "function",
      "constant": true
    },
    {
      "inputs": [
        {
          "internalType": "uint256",
          "name": "_p_F1_T",
          "type": "uint256"
        },
        {
          "internalType": "uint256",
          "name": "_p_F2_T",
          "type": "uint256"
        }
      ],
      "name": "impostaProbabilitaAPriori",
      "outputs": [],
      "stateMutability": "nonpayable",
      "type": "function"
    },
    {
      "inputs": [
        {
          "internalType": "uint8",
          "name": "_idEvidenza",
          "type": "uint8"
        },
        {
          "components": [
            {
              "internalType": "uint256",
              "name": "p_FF",
              "type": "uint256"
            },
            {
              "internalType": "uint256",
              "name": "p_FT",
              "type": "uint256"
            },
            {
              "internalType": "uint256",
              "name": "p_TF",
              "type": "uint256"
            },
            {
              "internalType": "uint256",
              "name": "p_TT",
              "type": "uint256"
            }
          ],
          "internalType": "struct BNCalcolatoreOnChain.CPT",
          "name": "_cpt",
          "type": "tuple"
        }
      ],
      "name": "impostaCPT",
      "outputs": [],
      "stateMutability": "nonpayable",
      "type": "function"
    },
    {
      "inputs": [
        {
          "internalType": "address",
          "name": "_corriere",
          "type": "address"
        }
      ],
      "name": "creaSpedizione",
      "outputs": [
        {
          "internalType": "uint256",
          "name": "",
          "type": "uint256"
        }
      ],
      "stateMutability": "payable",
      "type": "function",
      "payable": true
    },
    {
      "inputs": [
        {
          "internalType": "uint256",
          "name": "_idSpedizione",
          "type": "uint256"
        },
        {
          "internalType": "uint8",
          "name": "_idEvidenza",
          "type": "uint8"
        },
        {
          "internalType": "bool",
          "name": "_valore",
          "type": "bool"
        }
      ],
      "name": "inviaEvidenza",
      "outputs": [],
      "stateMutability": "nonpayable",
      "type": "function"
    },
    {
      "inputs": [
        {
          "internalType": "uint256",
          "name": "_id",
          "type": "uint256"
        }
      ],
      "name": "validaEPaga",
      "outputs": [],
      "stateMutability": "nonpayable",
      "type": "function"
    }
  ],
  "bytecode": "0x60806040523480156200001157600080fd5b50620000276000801b33620000c760201b60201c565b506200005a7ff56e76769132b846053e5a02e1c9d7d5dfc177dc0f7f274e3984b0b6c8292a0c33620000c760201b60201c565b506200008d7fc29a520d14a1982ef8877f515b1b06d86b6985097a9e042cf6192fa9b4a6a51d33620000c760201b60201c565b50620000c07f341e18cd329b096f016dc89764a06b01b1ccadec74ceedee10b16235f048f6ff33620000c760201b60201c565b506200023c565b6000620000db8383620001ca60201b60201c565b620001bf57600160008085815260200190815260200160002060000160008473ffffffffffffffffffffffffffffffffffffffff1673ffffffffffffffffffffffffffffffffffffffff16815260200190815260200160002060006101000a81548160ff0219169083151502179055506200015b6200023460201b60201c565b73ffffffffffffffffffffffffffffffffffffffff168273ffffffffffffffffffffffffffffffffffffffff16847f2f8788117e7eff1d82e926ec794901d17c78024a50270940304540a733656f0d60405160405180910390a460019050620001c4565b600090505b92915050565b600080600084815260200190815260200160002060000160008373ffffffffffffffffffffffffffffffffffffffff1673ffffffffffffffffffffffffffffffffffffffff16815260200190815260200160002060009054906101000a900460ff16905092915050565b600033905090565b612d77806200024c6000396000f3fe6080604052600436106101815760003560e01c806391d14854116100d1578063df4e690f1161008a578063f15c75c711610064578063f15c75c714610585578063f584c621146105b0578063f6450656146105db578063fc6b1cad1461060657610181565b8063df4e690f146104f0578063e47ffc1614610531578063e86779561461055c57610181565b806391d14854146103db578063a217fddf14610418578063a3102cca14610443578063af1dac0414610471578063ca0b74ef1461049c578063d547741f146104c757610181565b80633a8f4ea51161013e5780636666ba79116101185780636666ba791461032e5780636a5f38541461035c578063756a4c5a1461038757806378cb0ae5146103b057610181565b80633a8f4ea5146102a95780636571c7fe146102d2578063661de7541461030057610181565b806301ffc9a7146101865780630ce88ee4146101c3578063248a9ca3146101f157806327a66c131461022e5780632f2ff15d1461025757806336568abe14610280575b600080fd5b34801561019257600080fd5b506101ad60048036038101906101a8919061210a565b610636565b6040516101ba9190612152565b60405180910390f35b3480156101cf57600080fd5b506101d86106b0565b6040516101e89493929190612186565b60405180910390f35b3480156101fd57600080fd5b5061021860048036038101906102139190612201565b6106ce565b604051610225919061223d565b60405180910390f35b34801561023a57600080fd5b50610255600480360381019061025091906122e9565b6106ed565b005b34801561026357600080fd5b5061027e6004803603810190610279919061239a565b610977565b005b34801561028c57600080fd5b506102a760048036038101906102a2919061239a565b610999565b005b3480156102b557600080fd5b506102d060048036038101906102cb91906123da565b610a14565b005b3480156102de57600080fd5b506102e7610a51565b6040516102f79493929190612186565b60405180910390f35b34801561030c57600080fd5b50610315610a6f565b6040516103259493929190612186565b60405180910390f35b34801561033a57600080fd5b50610343610a8d565b6040516103539493929190612186565b60405180910390f35b34801561036857600080fd5b50610371610aab565b60405161037e919061241a565b60405180910390f35b34801561039357600080fd5b506103ae60048036038101906103a99190612459565b610ab0565b005b3480156103bc57600080fd5b506103c5610bc8565b6040516103d2919061223d565b60405180910390f35b3480156103e757600080fd5b5061040260048036038101906103fd919061239a565b610bec565b60405161040f9190612152565b60405180910390f35b34801561042457600080fd5b5061042d610c56565b60405161043a919061223d565b60405180910390f35b34801561044f57600080fd5b50610458610c5d565b6040516104689493929190612186565b60405180910390f35b34801561047d57600080fd5b50610486610c7b565b604051610493919061241a565b60405180910390f35b3480156104a857600080fd5b506104b1610c81565b6040516104be919061241a565b60405180910390f35b3480156104d357600080fd5b506104ee60048036038101906104e9919061239a565b610c87565b005b3480156104fc57600080fd5b5061051760048036038101906105129190612499565b610ca9565b604051610528959493929190612627565b60405180910390f35b34801561053d57600080fd5b50610546610e45565b604051610553919061241a565b60405180910390f35b34801561056857600080fd5b50610583600480360381019061057e9190612499565b610e4b565b005b34801561059157600080fd5b5061059a61121c565b6040516105a7919061223d565b60405180910390f35b3480156105bc57600080fd5b506105c5611240565b6040516105d2919061223d565b60405180910390f35b3480156105e757600080fd5b506105f0611264565b6040516105fd919061268a565b60405180910390f35b610620600480360381019061061b91906126a5565b611269565b60405161062d919061241a565b60405180910390f35b60007f7965db0b000000000000000000000000000000000000000000000000000000007bffffffffffffffffffffffffffffffffffffffffffffffffffffffff1916827bffffffffffffffffffffffffffffffffffffffffffffffffffffffff191614806106a957506106a882611650565b5b9050919050565b60138060000154908060010154908060020154908060030154905084565b6000806000838152602001908152602001600020600101549050919050565b7f341e18cd329b096f016dc89764a06b01b1ccadec74ceedee10b16235f048f6ff610717816116ba565b600060176000868152602001908152602001600020905060006001811115610742576107416124d5565b5b8160030160009054906101000a900460ff166001811115610766576107656124d5565b5b146107a6576040517f08c379a000000000000000000000000000000000000000000000000000000000815260040161079d9061272f565b60405180910390fd5b60018460ff16036107f55760018160040160000160006101000a81548160ff021916908315150217905550828160040160000160056101000a81548160ff021916908315150217905550610970565b60028460ff16036108445760018160040160000160016101000a81548160ff021916908315150217905550828160040160000160066101000a81548160ff02191690831515021790555061096f565b60038460ff16036108935760018160040160000160026101000a81548160ff021916908315150217905550828160040160000160076101000a81548160ff02191690831515021790555061096e565b60048460ff16036108e25760018160040160000160036101000a81548160ff021916908315150217905550828160040160000160086101000a81548160ff02191690831515021790555061096d565b60058460ff16036109315760018160040160000160046101000a81548160ff021916908315150217905550828160040160000160096101000a81548160ff02191690831515021790555061096c565b6040517f08c379a00000000000000000000000000000000000000000000000000000000081526004016109639061279b565b60405180910390fd5b5b5b5b5b5050505050565b610980826106ce565b610989816116ba565b61099383836116ce565b50505050565b6109a16117bf565b73ffffffffffffffffffffffffffffffffffffffff168173ffffffffffffffffffffffffffffffffffffffff1614610a05576040517f6697b23200000000000000000000000000000000000000000000000000000000815260040160405180910390fd5b610a0f82826117c7565b505050565b7ff56e76769132b846053e5a02e1c9d7d5dfc177dc0f7f274e3984b0b6c8292a0c610a3e816116ba565b8260018190555081600281905550505050565b600f8060000154908060010154908060020154908060030154905084565b600b8060000154908060010154908060020154908060030154905084565b60038060000154908060010154908060020154908060030154905084565b606481565b7ff56e76769132b846053e5a02e1c9d7d5dfc177dc0f7f274e3984b0b6c8292a0c610ada816116ba565b60018360ff1603610afc578160038181610af49190612901565b905050610bc3565b60028360ff1603610b1e578160078181610b169190612901565b905050610bc2565b60038360ff1603610b405781600b8181610b389190612901565b905050610bc1565b60048360ff1603610b625781600f8181610b5a9190612901565b905050610bc0565b60058360ff1603610b84578160138181610b7c9190612901565b905050610bbf565b6040517f08c379a0000000000000000000000000000000000000000000000000000000008152600401610bb69061279b565b60405180910390fd5b5b5b5b5b505050565b7ff56e76769132b846053e5a02e1c9d7d5dfc177dc0f7f274e3984b0b6c8292a0c81565b600080600084815260200190815260200160002060000160008373ffffffffffffffffffffffffffffffffffffffff1673ffffffffffffffffffffffffffffffffffffffff16815260200190815260200160002060009054906101000a900460ff16905092915050565b6000801b81565b60078060000154908060010154908060020154908060030154905084565b60015481565b60185481565b610c90826106ce565b610c99816116ba565b610ca383836117c7565b50505050565b60176020528060005260406000206000915090508060000160009054906101000a900473ffffffffffffffffffffffffffffffffffffffff16908060010160009054906101000a900473ffffffffffffffffffffffffffffffffffffffff16908060020154908060030160009054906101000a900460ff169080600401604051806101400160405290816000820160009054906101000a900460ff161515151581526020016000820160019054906101000a900460ff161515151581526020016000820160029054906101000a900460ff161515151581526020016000820160039054906101000a900460ff161515151581526020016000820160049054906101000a900460ff161515151581526020016000820160059054906101000a900460ff161515151581526020016000820160069054906101000a900460ff161515151581526020016000820160079054906101000a900460ff161515151581526020016000820160089054906101000a900460ff161515151581526020016000820160099054906101000a900460ff161515151581525050905085565b60025481565b60006017600083815260200190815260200160002090503373ffffffffffffffffffffffffffffffffffffffff168160010160009054906101000a900473ffffffffffffffffffffffffffffffffffffffff1673ffffffffffffffffffffffffffffffffffffffff1614610ef4576040517f08c379a0000000000000000000000000000000000000000000000000000000008152600401610eeb9061295b565b60405180910390fd5b60006001811115610f0857610f076124d5565b5b8160030160009054906101000a900460ff166001811115610f2c57610f2b6124d5565b5b14610f6c576040517f08c379a0000000000000000000000000000000000000000000000000000000008152600401610f639061272f565b60405180910390fd5b8060040160000160009054906101000a900460ff168015610f9e57508060040160000160019054906101000a900460ff165b8015610fbb57508060040160000160029054906101000a900460ff165b8015610fd857508060040160000160039054906101000a900460ff165b8015610ff557508060040160000160049054906101000a900460ff165b611034576040517f08c379a000000000000000000000000000000000000000000000000000000000815260040161102b906129c7565b60405180910390fd5b600080611040846118b9565b91509150605f60ff16821015801561105c5750605f60ff168110155b61109b576040517f08c379a000000000000000000000000000000000000000000000000000000000815260040161109290612a59565b60405180910390fd5b60008360020154905060018460030160006101000a81548160ff021916908360018111156110cc576110cb6124d5565b5b02179055508360010160009054906101000a900473ffffffffffffffffffffffffffffffffffffffff1673ffffffffffffffffffffffffffffffffffffffff16857f0a2f22141640c8c85c1a030498ce3f5969a1c8275ccd462eaa1da0d8097003a08360405161113c919061241a565b60405180910390a360008460010160009054906101000a900473ffffffffffffffffffffffffffffffffffffffff1673ffffffffffffffffffffffffffffffffffffffff168260405161118e90612aaa565b60006040518083038185875af1925050503d80600081146111cb576040519150601f19603f3d011682016040523d82523d6000602084013e6111d0565b606091505b5050905080611214576040517f08c379a000000000000000000000000000000000000000000000000000000000815260040161120b90612b0b565b60405180910390fd5b505050505050565b7f341e18cd329b096f016dc89764a06b01b1ccadec74ceedee10b16235f048f6ff81565b7fc29a520d14a1982ef8877f515b1b06d86b6985097a9e042cf6192fa9b4a6a51d81565b605f81565b60007fc29a520d14a1982ef8877f515b1b06d86b6985097a9e042cf6192fa9b4a6a51d611295816116ba565b600034116112d8576040517f08c379a00000000000000000000000000000000000000000000000000000000081526004016112cf90612b77565b60405180910390fd5b601860008154809291906112eb90612bc6565b9190505550600060185490506040518060a001604052803373ffffffffffffffffffffffffffffffffffffffff1681526020018573ffffffffffffffffffffffffffffffffffffffff16815260200134815260200160006001811115611354576113536124d5565b5b8152602001604051806101400160405280600015158152602001600015158152602001600015158152602001600015158152602001600015158152602001600015158152602001600015158152602001600015158152602001600015158152602001600015158152508152506017600083815260200190815260200160002060008201518160000160006101000a81548173ffffffffffffffffffffffffffffffffffffffff021916908373ffffffffffffffffffffffffffffffffffffffff16021790555060208201518160010160006101000a81548173ffffffffffffffffffffffffffffffffffffffff021916908373ffffffffffffffffffffffffffffffffffffffff1602179055506040820151816002015560608201518160030160006101000a81548160ff02191690836001811115611496576114956124d5565b5b021790555060808201518160040160008201518160000160006101000a81548160ff02191690831515021790555060208201518160000160016101000a81548160ff02191690831515021790555060408201518160000160026101000a81548160ff02191690831515021790555060608201518160000160036101000a81548160ff02191690831515021790555060808201518160000160046101000a81548160ff02191690831515021790555060a08201518160000160056101000a81548160ff02191690831515021790555060c08201518160000160066101000a81548160ff02191690831515021790555060e08201518160000160076101000a81548160ff0219169083151502179055506101008201518160000160086101000a81548160ff0219169083151502179055506101208201518160000160096101000a81548160ff02191690831515021790555050509050508373ffffffffffffffffffffffffffffffffffffffff163373ffffffffffffffffffffffffffffffffffffffff16827f83e44826fa5d862a2a4cf309c5bf113a2b92a361b73eaf2c7bdfce9b60c7d3cf60405160405180910390a48092505050919050565b60007f01ffc9a7000000000000000000000000000000000000000000000000000000007bffffffffffffffffffffffffffffffffffffffffffffffffffffffff1916827bffffffffffffffffffffffffffffffffffffffffffffffffffffffff1916149050919050565b6116cb816116c66117bf565b611bcc565b50565b60006116da8383610bec565b6117b457600160008085815260200190815260200160002060000160008473ffffffffffffffffffffffffffffffffffffffff1673ffffffffffffffffffffffffffffffffffffffff16815260200190815260200160002060006101000a81548160ff0219169083151502179055506117516117bf565b73ffffffffffffffffffffffffffffffffffffffff168273ffffffffffffffffffffffffffffffffffffffff16847f2f8788117e7eff1d82e926ec794901d17c78024a50270940304540a733656f0d60405160405180910390a4600190506117b9565b600090505b92915050565b600033905090565b60006117d38383610bec565b156118ae57600080600085815260200190815260200160002060000160008473ffffffffffffffffffffffffffffffffffffffff1673ffffffffffffffffffffffffffffffffffffffff16815260200190815260200160002060006101000a81548160ff02191690831515021790555061184b6117bf565b73ffffffffffffffffffffffffffffffffffffffff168273ffffffffffffffffffffffffffffffffffffffff16847ff6391f5c32d9c69d2a47ea670b442974b53935d1edc7fd64eb21e047a839171b60405160405180910390a4600190506118b3565b600090505b92915050565b600080600060176000858152602001908152602001600020600401604051806101400160405290816000820160009054906101000a900460ff161515151581526020016000820160019054906101000a900460ff161515151581526020016000820160029054906101000a900460ff161515151581526020016000820160039054906101000a900460ff161515151581526020016000820160049054906101000a900460ff161515151581526020016000820160059054906101000a900460ff161515151581526020016000820160069054906101000a900460ff161515151581526020016000820160079054906101000a900460ff161515151581526020016000820160089054906101000a900460ff161515151581526020016000820160099054906101000a900460ff1615151515815250509050600060015490506000816064611a069190612c0e565b9050600060025490506000816064611a1e9190612c0e565b90506000611a2e86600180611c1d565b9050606480611a3d9190612c42565b838683611a4a9190612c42565b611a549190612c42565b611a5e9190612cb3565b90506000611a6f8760016000611c1d565b9050606480611a7e9190612c42565b838783611a8b9190612c42565b611a959190612c42565b611a9f9190612cb3565b90506000611ab08860006001611c1d565b9050606480611abf9190612c42565b858783611acc9190612c42565b611ad69190612c42565b611ae09190612cb3565b90506000611af089600080611c1d565b9050606480611aff9190612c42565b858883611b0c9190612c42565b611b169190612c42565b611b209190612cb3565b9050600081838587611b329190612ce4565b611b3c9190612ce4565b611b469190612ce4565b905060008103611b66576000809b509b5050505050505050505050611bc7565b60008160648688611b779190612ce4565b611b819190612c42565b611b8b9190612cb3565b905060008260648689611b9e9190612ce4565b611ba89190612c42565b611bb29190612cb3565b905081819d509d505050505050505050505050505b915091565b611bd68282610bec565b611c195780826040517fe2517d3f000000000000000000000000000000000000000000000000000000008152600401611c10929190612d18565b60405180910390fd5b5050565b60008060649050600080866000015115611d025760001515861515148015611c49575060001515851515145b15611c5b576003600001549150611cd7565b60001515861515148015611c73575060011515851515145b15611c85576003600101549150611cd6565b60011515861515148015611c9d575060001515851515145b15611caf576003600201549150611cd5565b60011515861515148015611cc7575060011515851515145b15611cd457600380015491505b5b5b5b611ce58760a0015183612081565b905060648184611cf59190612c42565b611cff9190612cb3565b92505b866020015115611dde5760001515861515148015611d24575060001515851515145b15611d36576007600001549150611db3565b60001515861515148015611d4e575060011515851515145b15611d60576007600101549150611db2565b60011515861515148015611d78575060001515851515145b15611d8a576007600201549150611db1565b60011515861515148015611da2575060011515851515145b15611db05760076003015491505b5b5b5b611dc18760c0015183612081565b905060648184611dd19190612c42565b611ddb9190612cb3565b92505b866040015115611eba5760001515861515148015611e00575060001515851515145b15611e1257600b600001549150611e8f565b60001515861515148015611e2a575060011515851515145b15611e3c57600b600101549150611e8e565b60011515861515148015611e54575060001515851515145b15611e6657600b600201549150611e8d565b60011515861515148015611e7e575060011515851515145b15611e8c57600b6003015491505b5b5b5b611e9d8760e0015183612081565b905060648184611ead9190612c42565b611eb79190612cb3565b92505b866060015115611f975760001515861515148015611edc575060001515851515145b15611eee57600f600001549150611f6b565b60001515861515148015611f06575060011515851515145b15611f1857600f600101549150611f6a565b60011515861515148015611f30575060001515851515145b15611f4257600f600201549150611f69565b60011515861515148015611f5a575060011515851515145b15611f6857600f6003015491505b5b5b5b611f7a87610100015183612081565b905060648184611f8a9190612c42565b611f949190612cb3565b92505b8660800151156120745760001515861515148015611fb9575060001515851515145b15611fcb576013600001549150612048565b60001515861515148015611fe3575060011515851515145b15611ff5576013600101549150612047565b6001151586151514801561200d575060001515851515145b1561201f576013600201549150612046565b60011515861515148015612037575060011515851515145b156120455760136003015491505b5b5b5b61205787610120015183612081565b9050606481846120679190612c42565b6120719190612cb3565b92505b8293505050509392505050565b60006001151583151503612097578190506120a7565b8160646120a49190612c0e565b90505b92915050565b600080fd5b60007fffffffff0000000000000000000000000000000000000000000000000000000082169050919050565b6120e7816120b2565b81146120f257600080fd5b50565b600081359050612104816120de565b92915050565b6000602082840312156121205761211f6120ad565b5b600061212e848285016120f5565b91505092915050565b60008115159050919050565b61214c81612137565b82525050565b60006020820190506121676000830184612143565b92915050565b6000819050919050565b6121808161216d565b82525050565b600060808201905061219b6000830187612177565b6121a86020830186612177565b6121b56040830185612177565b6121c26060830184612177565b95945050505050565b6000819050919050565b6121de816121cb565b81146121e957600080fd5b50565b6000813590506121fb816121d5565b92915050565b600060208284031215612217576122166120ad565b5b6000612225848285016121ec565b91505092915050565b612237816121cb565b82525050565b6000602082019050612252600083018461222e565b92915050565b6122618161216d565b811461226c57600080fd5b50565b60008135905061227e81612258565b92915050565b600060ff82169050919050565b61229a81612284565b81146122a557600080fd5b50565b6000813590506122b781612291565b92915050565b6122c681612137565b81146122d157600080fd5b50565b6000813590506122e3816122bd565b92915050565b600080600060608486031215612302576123016120ad565b5b60006123108682870161226f565b9350506020612321868287016122a8565b9250506040612332868287016122d4565b9150509250925092565b600073ffffffffffffffffffffffffffffffffffffffff82169050919050565b60006123678261233c565b9050919050565b6123778161235c565b811461238257600080fd5b50565b6000813590506123948161236e565b92915050565b600080604083850312156123b1576123b06120ad565b5b60006123bf858286016121ec565b92505060206123d085828601612385565b9150509250929050565b600080604083850312156123f1576123f06120ad565b5b60006123ff8582860161226f565b92505060206124108582860161226f565b9150509250929050565b600060208201905061242f6000830184612177565b92915050565b600080fd5b6000608082840312156124505761244f612435565b5b81905092915050565b60008060a083850312156124705761246f6120ad565b5b600061247e858286016122a8565b925050602061248f8582860161243a565b9150509250929050565b6000602082840312156124af576124ae6120ad565b5b60006124bd8482850161226f565b91505092915050565b6124cf8161235c565b82525050565b7f4e487b7100000000000000000000000000000000000000000000000000000000600052602160045260246000fd5b60028110612515576125146124d5565b5b50565b600081905061252682612504565b919050565b600061253682612518565b9050919050565b6125468161252b565b82525050565b61255581612137565b82525050565b61014082016000820151612572600085018261254c565b506020820151612585602085018261254c565b506040820151612598604085018261254c565b5060608201516125ab606085018261254c565b5060808201516125be608085018261254c565b5060a08201516125d160a085018261254c565b5060c08201516125e460c085018261254c565b5060e08201516125f760e085018261254c565b5061010082015161260c61010085018261254c565b5061012082015161262161012085018261254c565b50505050565b60006101c08201905061263d60008301886124c6565b61264a60208301876124c6565b6126576040830186612177565b612664606083018561253d565b612671608083018461255b565b9695505050505050565b61268481612284565b82525050565b600060208201905061269f600083018461267b565b92915050565b6000602082840312156126bb576126ba6120ad565b5b60006126c984828501612385565b91505092915050565b600082825260208201905092915050565b7f53706564697a696f6e65206e6f6e20696e206174746573610000000000000000600082015250565b60006127196018836126d2565b9150612724826126e3565b602082019050919050565b600060208201905081810360008301526127488161270c565b9050919050565b7f49442065766964656e7a61206e6f6e2076616c69646f2028312d352900000000600082015250565b6000612785601c836126d2565b91506127908261274f565b602082019050919050565b600060208201905081810360008301526127b481612778565b9050919050565b600081356127c881612258565b80915050919050565b60008160001b9050919050565b60007fffffffffffffffffffffffffffffffffffffffffffffffffffffffffffffffff61280a846127d1565b9350801983169250808416831791505092915050565b6000819050919050565b600061284561284061283b8461216d565b612820565b61216d565b9050919050565b6000819050919050565b61285f8261282a565b61287261286b8261284c565b83546127de565b8255505050565b60008101600083018061288b816127bb565b90506128978184612856565b5050506001810160208301806128ac816127bb565b90506128b88184612856565b5050506002810160408301806128cd816127bb565b90506128d98184612856565b5050506003810160608301806128ee816127bb565b90506128fa8184612856565b5050505050565b61290b8282612879565b5050565b7f4e6f6e2073656920696c20636f72726965726500000000000000000000000000600082015250565b60006129456013836126d2565b91506129508261290f565b602082019050919050565b6000602082019050818103600083015261297481612938565b9050919050565b7f45766964656e7a65206d616e63616e7469000000000000000000000000000000600082015250565b60006129b16011836126d2565b91506129bc8261297b565b602082019050919050565b600060208201905081810360008301526129e0816129a4565b9050919050565b7f52657175697369746920646920636f6e666f726d697461206e6f6e207375706560008201527f7261746900000000000000000000000000000000000000000000000000000000602082015250565b6000612a436024836126d2565b9150612a4e826129e7565b604082019050919050565b60006020820190508181036000830152612a7281612a36565b9050919050565b600081905092915050565b50565b6000612a94600083612a79565b9150612a9f82612a84565b600082019050919050565b6000612ab582612a87565b9150819050919050565b7f506167616d656e746f2066616c6c69746f000000000000000000000000000000600082015250565b6000612af56011836126d2565b9150612b0082612abf565b602082019050919050565b60006020820190508181036000830152612b2481612ae8565b9050919050565b7f506167616d656e746f203e203000000000000000000000000000000000000000600082015250565b6000612b61600d836126d2565b9150612b6c82612b2b565b602082019050919050565b60006020820190508181036000830152612b9081612b54565b9050919050565b7f4e487b7100000000000000000000000000000000000000000000000000000000600052601160045260246000fd5b6000612bd18261216d565b91507fffffffffffffffffffffffffffffffffffffffffffffffffffffffffffffffff8203612c0357612c02612b97565b5b600182019050919050565b6000612c198261216d565b9150612c248361216d565b9250828203905081811115612c3c57612c3b612b97565b5b92915050565b6000612c4d8261216d565b9150612c588361216d565b9250828202612c668161216d565b91508282048414831517612c7d57612c7c612b97565b5b5092915050565b7f4e487b7100000000000000000000000000000000000000000000000000000000600052601260045260246000fd5b6000612cbe8261216d565b9150612cc98361216d565b925082612cd957612cd8612c84565b5b828204905092915050565b6000612cef8261216d565b9150612cfa8361216d565b9250828201905080821115612d1257612d11612b97565b5b92915050565b6000604082019050612d2d60008301856124c6565b612d3a602083018461222e565b939250505056fea2646970667358221220f83d0364de14c524972cd06faea7b92eb53d709780d52a737ad23a9e3d07c36064736f6c63430008140033",
  "immutableReferences": {},
  "source": "// SPDX-License-Identifier: MIT\npragma solidity ^0.8.19;\n\nimport \"@openzeppelin/contracts/access/AccessControl.sol\";\n\n/**\n * @title BNCalcolatoreOnChain\n * @notice Versione COMPLETA. Gestisce 5 Fatti e 5 Evidenze.\n * @dev Corretto per il bug del compilatore (rimossa funzione annidata)\n */\ncontract BNCalcolatoreOnChain is AccessControl {\n\n    // === COSTANTI E RUOLI ===\n    uint256 public constant PRECISIONE = 100;\n    bytes32 public constant RUOLO_ORACOLO = keccak256(\"RUOLO_ORACOLO\");\n    bytes32 public constant RUOLO_SENSORE = keccak256(\"RUOLO_SENSORE\");\n    bytes32 public constant RUOLO_MITTENTE = keccak256(\"RUOLO_MITTENTE\");\n    uint8 public constant SOGLIA_PROBABILITA = 95; // 95%\n\n    // === 1. MEMORIA PER LE PROBABILIT (CPT) ===\n    uint256 public p_F1_T; // P(F1=True)\n    uint256 public p_F2_T; // P(F2=True)\n\n    struct CPT {\n        uint256 p_FF; // P(E=T | F1=F, F2=F)\n        uint256 p_FT; // P(E=T | F1=F, F2=T)\n        uint256 p_TF; // P(E=T | F1=T, F2=F)\n        uint256 p_TT; // P(E=T | F1=T, F2=T)\n    }\n\n    CPT public cpt_E1;\n    CPT public cpt_E2;\n    CPT public cpt_E3;\n    CPT public cpt_E4;\n    CPT public cpt_E5;\n\n    // === 2. FUNZIONE DI SETUP ===\n    constructor() {\n        _grantRole(DEFAULT_ADMIN_ROLE, msg.sender);\n        _grantRole(RUOLO_ORACOLO, msg.sender);\n        _grantRole(RUOLO_MITTENTE, msg.sender);\n        _grantRole(RUOLO_SENSORE, msg.sender);\n    }\n    \n    function impostaProbabilitaAPriori(uint256 _p_F1_T, uint256 _p_F2_T)\n        external\n        onlyRole(RUOLO_ORACOLO)\n    {\n        p_F1_T = _p_F1_T;\n        p_F2_T = _p_F2_T;\n    }\n\n    function impostaCPT(uint8 _idEvidenza, CPT calldata _cpt)\n        external\n        onlyRole(RUOLO_ORACOLO)\n    {\n        if (_idEvidenza == 1) cpt_E1 = _cpt;\n        else if (_idEvidenza == 2) cpt_E2 = _cpt;\n        else if (_idEvidenza == 3) cpt_E3 = _cpt;\n        else if (_idEvidenza == 4) cpt_E4 = _cpt;\n        else if (_idEvidenza == 5) cpt_E5 = _cpt;\n        else revert(\"ID evidenza non valido (1-5)\");\n    }\n\n    // === 3. MEMORIA PER LE SPEDIZIONI E LE EVIDENZE ===\n    enum StatoSpedizione { InAttesa, Pagata }\n\n    struct StatoEvidenze {\n        bool E1_ricevuta;\n        bool E2_ricevuta;\n        bool E3_ricevuta;\n        bool E4_ricevuta;\n        bool E5_ricevuta;\n        bool E1_valore; // True o False\n        bool E2_valore;\n        bool E3_valore;\n        bool E4_valore;\n        bool E5_valore;\n    }\n\n    struct Spedizione {\n        address mittente;\n        address corriere;\n        uint256 importoPagamento;\n        StatoSpedizione stato;\n        StatoEvidenze evidenze;\n    }\n\n    mapping(uint256 => Spedizione) public spedizioni;\n    uint256 public _contatoreIdSpedizione;\n\n    event SpedizioneCreata(uint256 indexed id, address indexed mittente, address indexed corriere);\n    event SpedizionePagata(uint256 indexed id, address indexed corriere, uint256 importo);\n\n    function creaSpedizione(address _corriere)\n        external\n        payable\n        onlyRole(RUOLO_MITTENTE)\n        returns (uint256)\n    {\n        require(msg.value > 0, \"Pagamento > 0\");\n        _contatoreIdSpedizione++;\n        uint256 id = _contatoreIdSpedizione;\n        spedizioni[id] = Spedizione({\n            mittente: msg.sender,\n            corriere: _corriere,\n            importoPagamento: msg.value,\n            stato: StatoSpedizione.InAttesa,\n            evidenze: StatoEvidenze(false,false,false,false,false,false,false,false,false,false)\n        });\n\n        emit SpedizioneCreata(id, msg.sender, _corriere);\n        return id;\n    }\n\n    // === 4. FUNZIONI DI INVIO EVIDENZE (COMPLETATA) ===\n    function inviaEvidenza(uint256 _idSpedizione, uint8 _idEvidenza, bool _valore)\n        external\n        onlyRole(RUOLO_SENSORE)\n    {\n        Spedizione storage s = spedizioni[_idSpedizione];\n        require(s.stato == StatoSpedizione.InAttesa, \"Spedizione non in attesa\");\n        \n        if (_idEvidenza == 1) {\n            s.evidenze.E1_ricevuta = true;\n            s.evidenze.E1_valore = _valore;\n        } else if (_idEvidenza == 2) {\n            s.evidenze.E2_ricevuta = true;\n            s.evidenze.E2_valore = _valore;\n        } else if (_idEvidenza == 3) {\n            s.evidenze.E3_ricevuta = true;\n            s.evidenze.E3_valore = _valore;\n        } else if (_idEvidenza == 4) {\n            s.evidenze.E4_ricevuta = true;\n            s.evidenze.E4_valore = _valore;\n        } else if (_idEvidenza == 5) {\n            s.evidenze.E5_ricevuta = true;\n            s.evidenze.E5_valore = _valore;\n        } else revert(\"ID evidenza non valido (1-5)\");\n    }\n\n    // === 5. IL CALCOLATORE (CORRETTO SENZA NESTING) ===\n    \n    function _leggiValoreCPT(bool _valEvidenza, uint256 _p_T) internal pure returns (uint256) {\n        if (_valEvidenza == true) {\n            return _p_T; // Ritorna P(E=T | ...)\n        } else {\n            return PRECISIONE - _p_T; // Ritorna P(E=F | ...)\n        }\n    }\n\n    /**\n     * @notice Funzione \"appiattita\" per evitare il bug del compilatore solc\n     */\n    function _calcolaProbabilitaCombinata(StatoEvidenze memory _evidenze, bool _f1, bool _f2) \n        internal view returns (uint256) \n    {\n        uint256 probCombinata = PRECISIONE; \n        uint256 p_T; // Probabilit P(E=T | F1, F2)\n        uint256 p_e; // Probabilit finale dell'evidenza (T or F)\n\n        // --- Logica E1 ---\n        if (_evidenze.E1_ricevuta) {\n            if (_f1 == false && _f2 == false) p_T = cpt_E1.p_FF;\n            else if (_f1 == false && _f2 == true)  p_T = cpt_E1.p_FT;\n            else if (_f1 == true  && _f2 == false) p_T = cpt_E1.p_TF;\n            else if (_f1 == true  && _f2 == true)  p_T = cpt_E1.p_TT;\n            p_e = _leggiValoreCPT(_evidenze.E1_valore, p_T);\n            probCombinata = (probCombinata * p_e) / PRECISIONE;\n        }\n        \n        // --- Logica E2 ---\n        if (_evidenze.E2_ricevuta) {\n            if (_f1 == false && _f2 == false) p_T = cpt_E2.p_FF;\n            else if (_f1 == false && _f2 == true)  p_T = cpt_E2.p_FT;\n            else if (_f1 == true  && _f2 == false) p_T = cpt_E2.p_TF;\n            else if (_f1 == true  && _f2 == true)  p_T = cpt_E2.p_TT;\n            p_e = _leggiValoreCPT(_evidenze.E2_valore, p_T);\n            probCombinata = (probCombinata * p_e) / PRECISIONE;\n        }\n        \n        // --- Logica E3 ---\n        if (_evidenze.E3_ricevuta) {\n            if (_f1 == false && _f2 == false) p_T = cpt_E3.p_FF;\n            else if (_f1 == false && _f2 == true)  p_T = cpt_E3.p_FT;\n            else if (_f1 == true  && _f2 == false) p_T = cpt_E3.p_TF;\n            else if (_f1 == true  && _f2 == true)  p_T = cpt_E3.p_TT;\n            p_e = _leggiValoreCPT(_evidenze.E3_valore, p_T);\n            probCombinata = (probCombinata * p_e) / PRECISIONE;\n        }\n        \n        // --- Logica E4 ---\n        if (_evidenze.E4_ricevuta) {\n            if (_f1 == false && _f2 == false) p_T = cpt_E4.p_FF;\n            else if (_f1 == false && _f2 == true)  p_T = cpt_E4.p_FT;\n            else if (_f1 == true  && _f2 == false) p_T = cpt_E4.p_TF;\n            else if (_f1 == true  && _f2 == true)  p_T = cpt_E4.p_TT;\n            p_e = _leggiValoreCPT(_evidenze.E4_valore, p_T);\n            probCombinata = (probCombinata * p_e) / PRECISIONE;\n        }\n        \n        // --- Logica E5 ---\n        if (_evidenze.E5_ricevuta) {\n            if (_f1 == false && _f2 == false) p_T = cpt_E5.p_FF;\n            else if (_f1 == false && _f2 == true)  p_T = cpt_E5.p_FT;\n            else if (_f1 == true  && _f2 == false) p_T = cpt_E5.p_TF;\n            else if (_f1 == true  && _f2 == true)  p_T = cpt_E5.p_TT;\n            p_e = _leggiValoreCPT(_evidenze.E5_valore, p_T);\n            probCombinata = (probCombinata * p_e) / PRECISIONE;\n        }\n\n        return probCombinata;\n    }\n\n    function _calcolaProbabilitaPosteriori(uint256 _id) \n        internal view \n        returns (uint256, uint256) \n    {\n        StatoEvidenze memory evidenze = spedizioni[_id].evidenze;\n        \n        uint256 pF1_T = p_F1_T;\n        uint256 pF1_F = PRECISIONE - pF1_T;\n        uint256 pF2_T = p_F2_T;\n        uint256 pF2_F = PRECISIONE - pF2_T;\n\n        // 1. Termine TT: P(E | T,T) * P(T) * P(T)\n        uint256 termine_TT = _calcolaProbabilitaCombinata(evidenze, true, true);\n        termine_TT = (termine_TT * pF1_T * pF2_T) / (PRECISIONE * PRECISIONE);\n\n        // 2. Termine TF: P(E | T,F) * P(T) * P(F)\n        uint256 termine_TF = _calcolaProbabilitaCombinata(evidenze, true, false);\n        termine_TF = (termine_TF * pF1_T * pF2_F) / (PRECISIONE * PRECISIONE);\n        \n        // 3. Termine FT: P(E | F,T) * P(F) * P(T)\n        uint256 termine_FT = _calcolaProbabilitaCombinata(evidenze, false, true);\n        termine_FT = (termine_FT * pF1_F * pF2_T) / (PRECISIONE * PRECISIONE);\n\n        // 4. Termine FF: P(E | F,F) * P(F) * P(F)\n        uint256 termine_FF = _calcolaProbabilitaCombinata(evidenze, false, false);\n        termine_FF = (termine_FF * pF1_F * pF2_F) / (PRECISIONE * PRECISIONE);\n\n        uint256 normalizzatore = termine_TT + termine_TF + termine_FT + termine_FF;\n        \n        if (normalizzatore == 0) return (0, 0);\n\n        // P(F1=T | E) = (termine_TT + termine_TF) / normalizzatore\n        uint256 probF1_True = ((termine_TT + termine_TF) * PRECISIONE) / normalizzatore;\n\n        // P(F2=T | E) = (termine_TT + termine_FT) / normalizzatore\n        uint256 probF2_True = ((termine_TT + termine_FT) * PRECISIONE) / normalizzatore;\n\n        return (probF1_True, probF2_True);\n    }\n\n    // === 6. FUNZIONE DI PAGAMENTO (COMPLETATA) ===\n    \n    function validaEPaga(uint256 _id) external {\n        Spedizione storage s = spedizioni[_id];\n        require(s.corriere == msg.sender, \"Non sei il corriere\");\n        require(s.stato == StatoSpedizione.InAttesa, \"Spedizione non in attesa\");\n        \n        require(\n            s.evidenze.E1_ricevuta && s.evidenze.E2_ricevuta &&\n            s.evidenze.E3_ricevuta && s.evidenze.E4_ricevuta &&\n            s.evidenze.E5_ricevuta, \n            \"Evidenze mancanti\"\n        );\n        \n        (uint256 probF1, uint256 probF2) = _calcolaProbabilitaPosteriori(_id);\n        \n        require(\n            probF1 >= SOGLIA_PROBABILITA && probF2 >= SOGLIA_PROBABILITA,\n            \"Requisiti di conformita non superati\"\n        );\n        \n        uint256 importo = s.importoPagamento;\n        s.stato = StatoSpedizione.Pagata; \n\n        emit SpedizionePagata(_id, s.corriere, importo);\n\n        (bool success, ) = s.corriere.call{value: importo}(\"\");\n        require(success, \"Pagamento fallito\");\n    }\n}",
  "sourcePath": "/Applications/MAMP/htdocs/ProgettoSoftwareSecurity/contracts/BNCalcolatoreOnChain.sol",
  "compiler": {
    "name": "solc",
    "version": "0.8.20+commit.a1b79de6.Emscripten.clang"
  },
  "schemaVersion": "3.4.16",
  "updatedAt": "2025-11-24T16:31:11.919Z",
  "networkType": "ethereum",
  "devdoc": {
    "details": "Corretto per il bug del compilatore (rimossa funzione annidata)",
    "errors": {
      "AccessControlBadConfirmation()": [
        {
          "details": "The caller of a function is not the expected one. NOTE: Don't confuse with {AccessControlUnauthorizedAccount}."
        }
      ],
      "AccessControlUnauthorizedAccount(address,bytes32)": [
        {
          "details": "The `account` is missing a role."
        }
      ]
    },
    "events": {
      "RoleAdminChanged(bytes32,bytes32,bytes32)": {
        "details": "Emitted when `newAdminRole` is set as ``role``'s admin role, replacing `previousAdminRole` `DEFAULT_ADMIN_ROLE` is the starting admin for all roles, despite {RoleAdminChanged} not being emitted to signal this."
      },
      "RoleGranted(bytes32,address,address)": {
        "details": "Emitted when `account` is granted `role`. `sender` is the account that originated the contract call. This account bears the admin role (for the granted role). Expected in cases where the role was granted using the internal {AccessControl-_grantRole}."
      },
      "RoleRevoked(bytes32,address,address)": {
        "details": "Emitted when `account` is revoked `role`. `sender` is the account that originated the contract call:   - if using `revokeRole`, it is the admin role bearer   - if using `renounceRole`, it is the role bearer (i.e. `account`)"
      }
    },
    "kind": "dev",
    "methods": {
      "getRoleAdmin(bytes32)": {
        "details": "Returns the admin role that controls `role`. See {grantRole} and {revokeRole}. To change a role's admin, use {_setRoleAdmin}."
      },
      "grantRole(bytes32,address)": {
        "details": "Grants `role` to `account`. If `account` had not been already granted `role`, emits a {RoleGranted} event. Requirements: - the caller must have ``role``'s admin role. May emit a {RoleGranted} event."
      },
      "hasRole(bytes32,address)": {
        "details": "Returns `true` if `account` has been granted `role`."
      },
      "renounceRole(bytes32,address)": {
        "details": "Revokes `role` from the calling account. Roles are often managed via {grantRole} and {revokeRole}: this function's purpose is to provide a mechanism for accounts to lose their privileges if they are compromised (such as when a trusted device is misplaced). If the calling account had been revoked `role`, emits a {RoleRevoked} event. Requirements: - the caller must be `callerConfirmation`. May emit a {RoleRevoked} event."
      },
      "revokeRole(bytes32,address)": {
        "details": "Revokes `role` from `account`. If `account` had been granted `role`, emits a {RoleRevoked} event. Requirements: - the caller must have ``role``'s admin role. May emit a {RoleRevoked} event."
      },
      "supportsInterface(bytes4)": {
        "details": "Returns true if this contract implements the interface defined by `interfaceId`. See the corresponding https://eips.ethereum.org/EIPS/eip-165#how-interfaces-are-identified[ERC section] to learn more about how these ids are created. This function call must use less than 30 000 gas."
      }
    },
    "title": "BNCalcolatoreOnChain",
    "version": 1
  },
  "userdoc": {
    "kind": "user",
    "methods": {},
    "notice": "Versione COMPLETA. Gestisce 5 Fatti e 5 Evidenze.",
    "version": 1
  }
}