{
  "contractName": "BNCalcolatoreOnChain",
  "abi": [
    {
      "inputs": [],
      "stateMutability": "nonpayable",
      "type": "constructor"
    },
    {
      "inputs": [],
      "name": "AccessControlBadConfirmation",
      "type": "error"
    },
    {
      "inputs": [
        {
          "internalType": "address",
          "name": "account",
          "type": "address"
        },
        {
          "internalType": "bytes32",
          "name": "neededRole",
          "type": "bytes32"
        }
      ],
      "name": "AccessControlUnauthorizedAccount",
      "type": "error"
    },
    {
      "anonymous": false,
      "inputs": [
        {
          "indexed": true,
          "internalType": "bytes32",
          "name": "role",
          "type": "bytes32"
        },
        {
          "indexed": true,
          "internalType": "bytes32",
          "name": "previousAdminRole",
          "type": "bytes32"
        },
        {
          "indexed": true,
          "internalType": "bytes32",
          "name": "newAdminRole",
          "type": "bytes32"
        }
      ],
      "name": "RoleAdminChanged",
      "type": "event"
    },
    {
      "anonymous": false,
      "inputs": [
        {
          "indexed": true,
          "internalType": "bytes32",
          "name": "role",
          "type": "bytes32"
        },
        {
          "indexed": true,
          "internalType": "address",
          "name": "account",
          "type": "address"
        },
        {
          "indexed": true,
          "internalType": "address",
          "name": "sender",
          "type": "address"
        }
      ],
      "name": "RoleGranted",
      "type": "event"
    },
    {
      "anonymous": false,
      "inputs": [
        {
          "indexed": true,
          "internalType": "bytes32",
          "name": "role",
          "type": "bytes32"
        },
        {
          "indexed": true,
          "internalType": "address",
          "name": "account",
          "type": "address"
        },
        {
          "indexed": true,
          "internalType": "address",
          "name": "sender",
          "type": "address"
        }
      ],
      "name": "RoleRevoked",
      "type": "event"
    },
    {
      "anonymous": false,
      "inputs": [
        {
          "indexed": true,
          "internalType": "uint256",
          "name": "id",
          "type": "uint256"
        },
        {
          "indexed": true,
          "internalType": "address",
          "name": "mittente",
          "type": "address"
        },
        {
          "indexed": true,
          "internalType": "address",
          "name": "corriere",
          "type": "address"
        }
      ],
      "name": "SpedizioneCreata",
      "type": "event"
    },
    {
      "anonymous": false,
      "inputs": [
        {
          "indexed": true,
          "internalType": "uint256",
          "name": "id",
          "type": "uint256"
        },
        {
          "indexed": true,
          "internalType": "address",
          "name": "corriere",
          "type": "address"
        },
        {
          "indexed": false,
          "internalType": "uint256",
          "name": "importo",
          "type": "uint256"
        }
      ],
      "name": "SpedizionePagata",
      "type": "event"
    },
    {
      "inputs": [],
      "name": "DEFAULT_ADMIN_ROLE",
      "outputs": [
        {
          "internalType": "bytes32",
          "name": "",
          "type": "bytes32"
        }
      ],
      "stateMutability": "view",
      "type": "function",
      "constant": true
    },
    {
      "inputs": [],
      "name": "PRECISIONE",
      "outputs": [
        {
          "internalType": "uint256",
          "name": "",
          "type": "uint256"
        }
      ],
      "stateMutability": "view",
      "type": "function",
      "constant": true
    },
    {
      "inputs": [],
      "name": "RUOLO_MITTENTE",
      "outputs": [
        {
          "internalType": "bytes32",
          "name": "",
          "type": "bytes32"
        }
      ],
      "stateMutability": "view",
      "type": "function",
      "constant": true
    },
    {
      "inputs": [],
      "name": "RUOLO_ORACOLO",
      "outputs": [
        {
          "internalType": "bytes32",
          "name": "",
          "type": "bytes32"
        }
      ],
      "stateMutability": "view",
      "type": "function",
      "constant": true
    },
    {
      "inputs": [],
      "name": "RUOLO_SENSORE",
      "outputs": [
        {
          "internalType": "bytes32",
          "name": "",
          "type": "bytes32"
        }
      ],
      "stateMutability": "view",
      "type": "function",
      "constant": true
    },
    {
      "inputs": [],
      "name": "SOGLIA_PROBABILITA",
      "outputs": [
        {
          "internalType": "uint8",
          "name": "",
          "type": "uint8"
        }
      ],
      "stateMutability": "view",
      "type": "function",
      "constant": true
    },
    {
      "inputs": [],
      "name": "cpt_E1",
      "outputs": [
        {
          "internalType": "uint256",
          "name": "p_FF",
          "type": "uint256"
        },
        {
          "internalType": "uint256",
          "name": "p_FT",
          "type": "uint256"
        },
        {
          "internalType": "uint256",
          "name": "p_TF",
          "type": "uint256"
        },
        {
          "internalType": "uint256",
          "name": "p_TT",
          "type": "uint256"
        }
      ],
      "stateMutability": "view",
      "type": "function",
      "constant": true
    },
    {
      "inputs": [],
      "name": "cpt_E2",
      "outputs": [
        {
          "internalType": "uint256",
          "name": "p_FF",
          "type": "uint256"
        },
        {
          "internalType": "uint256",
          "name": "p_FT",
          "type": "uint256"
        },
        {
          "internalType": "uint256",
          "name": "p_TF",
          "type": "uint256"
        },
        {
          "internalType": "uint256",
          "name": "p_TT",
          "type": "uint256"
        }
      ],
      "stateMutability": "view",
      "type": "function",
      "constant": true
    },
    {
      "inputs": [],
      "name": "cpt_E3",
      "outputs": [
        {
          "internalType": "uint256",
          "name": "p_FF",
          "type": "uint256"
        },
        {
          "internalType": "uint256",
          "name": "p_FT",
          "type": "uint256"
        },
        {
          "internalType": "uint256",
          "name": "p_TF",
          "type": "uint256"
        },
        {
          "internalType": "uint256",
          "name": "p_TT",
          "type": "uint256"
        }
      ],
      "stateMutability": "view",
      "type": "function",
      "constant": true
    },
    {
      "inputs": [],
      "name": "cpt_E4",
      "outputs": [
        {
          "internalType": "uint256",
          "name": "p_FF",
          "type": "uint256"
        },
        {
          "internalType": "uint256",
          "name": "p_FT",
          "type": "uint256"
        },
        {
          "internalType": "uint256",
          "name": "p_TF",
          "type": "uint256"
        },
        {
          "internalType": "uint256",
          "name": "p_TT",
          "type": "uint256"
        }
      ],
      "stateMutability": "view",
      "type": "function",
      "constant": true
    },
    {
      "inputs": [],
      "name": "cpt_E5",
      "outputs": [
        {
          "internalType": "uint256",
          "name": "p_FF",
          "type": "uint256"
        },
        {
          "internalType": "uint256",
          "name": "p_FT",
          "type": "uint256"
        },
        {
          "internalType": "uint256",
          "name": "p_TF",
          "type": "uint256"
        },
        {
          "internalType": "uint256",
          "name": "p_TT",
          "type": "uint256"
        }
      ],
      "stateMutability": "view",
      "type": "function",
      "constant": true
    },
    {
      "inputs": [
        {
          "internalType": "bytes32",
          "name": "role",
          "type": "bytes32"
        }
      ],
      "name": "getRoleAdmin",
      "outputs": [
        {
          "internalType": "bytes32",
          "name": "",
          "type": "bytes32"
        }
      ],
      "stateMutability": "view",
      "type": "function",
      "constant": true
    },
    {
      "inputs": [
        {
          "internalType": "bytes32",
          "name": "role",
          "type": "bytes32"
        },
        {
          "internalType": "address",
          "name": "account",
          "type": "address"
        }
      ],
      "name": "grantRole",
      "outputs": [],
      "stateMutability": "nonpayable",
      "type": "function"
    },
    {
      "inputs": [
        {
          "internalType": "bytes32",
          "name": "role",
          "type": "bytes32"
        },
        {
          "internalType": "address",
          "name": "account",
          "type": "address"
        }
      ],
      "name": "hasRole",
      "outputs": [
        {
          "internalType": "bool",
          "name": "",
          "type": "bool"
        }
      ],
      "stateMutability": "view",
      "type": "function",
      "constant": true
    },
    {
      "inputs": [],
      "name": "p_F1_T",
      "outputs": [
        {
          "internalType": "uint256",
          "name": "",
          "type": "uint256"
        }
      ],
      "stateMutability": "view",
      "type": "function",
      "constant": true
    },
    {
      "inputs": [],
      "name": "p_F2_T",
      "outputs": [
        {
          "internalType": "uint256",
          "name": "",
          "type": "uint256"
        }
      ],
      "stateMutability": "view",
      "type": "function",
      "constant": true
    },
    {
      "inputs": [
        {
          "internalType": "bytes32",
          "name": "role",
          "type": "bytes32"
        },
        {
          "internalType": "address",
          "name": "callerConfirmation",
          "type": "address"
        }
      ],
      "name": "renounceRole",
      "outputs": [],
      "stateMutability": "nonpayable",
      "type": "function"
    },
    {
      "inputs": [
        {
          "internalType": "bytes32",
          "name": "role",
          "type": "bytes32"
        },
        {
          "internalType": "address",
          "name": "account",
          "type": "address"
        }
      ],
      "name": "revokeRole",
      "outputs": [],
      "stateMutability": "nonpayable",
      "type": "function"
    },
    {
      "inputs": [
        {
          "internalType": "uint256",
          "name": "",
          "type": "uint256"
        }
      ],
      "name": "spedizioni",
      "outputs": [
        {
          "internalType": "address",
          "name": "mittente",
          "type": "address"
        },
        {
          "internalType": "address",
          "name": "corriere",
          "type": "address"
        },
        {
          "internalType": "uint256",
          "name": "importoPagamento",
          "type": "uint256"
        },
        {
          "internalType": "enum BNCalcolatoreOnChain.StatoSpedizione",
          "name": "stato",
          "type": "uint8"
        },
        {
          "components": [
            {
              "internalType": "bool",
              "name": "E1_ricevuta",
              "type": "bool"
            },
            {
              "internalType": "bool",
              "name": "E2_ricevuta",
              "type": "bool"
            },
            {
              "internalType": "bool",
              "name": "E3_ricevuta",
              "type": "bool"
            },
            {
              "internalType": "bool",
              "name": "E4_ricevuta",
              "type": "bool"
            },
            {
              "internalType": "bool",
              "name": "E5_ricevuta",
              "type": "bool"
            },
            {
              "internalType": "bool",
              "name": "E1_valore",
              "type": "bool"
            },
            {
              "internalType": "bool",
              "name": "E2_valore",
              "type": "bool"
            },
            {
              "internalType": "bool",
              "name": "E3_valore",
              "type": "bool"
            },
            {
              "internalType": "bool",
              "name": "E4_valore",
              "type": "bool"
            },
            {
              "internalType": "bool",
              "name": "E5_valore",
              "type": "bool"
            }
          ],
          "internalType": "struct BNCalcolatoreOnChain.StatoEvidenze",
          "name": "evidenze",
          "type": "tuple"
        }
      ],
      "stateMutability": "view",
      "type": "function",
      "constant": true
    },
    {
      "inputs": [
        {
          "internalType": "bytes4",
          "name": "interfaceId",
          "type": "bytes4"
        }
      ],
      "name": "supportsInterface",
      "outputs": [
        {
          "internalType": "bool",
          "name": "",
          "type": "bool"
        }
      ],
      "stateMutability": "view",
      "type": "function",
      "constant": true
    },
    {
      "inputs": [
        {
          "internalType": "uint256",
          "name": "_p_F1_T",
          "type": "uint256"
        },
        {
          "internalType": "uint256",
          "name": "_p_F2_T",
          "type": "uint256"
        }
      ],
      "name": "impostaProbabilitaAPriori",
      "outputs": [],
      "stateMutability": "nonpayable",
      "type": "function"
    },
    {
      "inputs": [
        {
          "internalType": "uint8",
          "name": "_idEvidenza",
          "type": "uint8"
        },
        {
          "components": [
            {
              "internalType": "uint256",
              "name": "p_FF",
              "type": "uint256"
            },
            {
              "internalType": "uint256",
              "name": "p_FT",
              "type": "uint256"
            },
            {
              "internalType": "uint256",
              "name": "p_TF",
              "type": "uint256"
            },
            {
              "internalType": "uint256",
              "name": "p_TT",
              "type": "uint256"
            }
          ],
          "internalType": "struct BNCalcolatoreOnChain.CPT",
          "name": "_cpt",
          "type": "tuple"
        }
      ],
      "name": "impostaCPT",
      "outputs": [],
      "stateMutability": "nonpayable",
      "type": "function"
    },
    {
      "inputs": [
        {
          "internalType": "address",
          "name": "_corriere",
          "type": "address"
        }
      ],
      "name": "creaSpedizione",
      "outputs": [
        {
          "internalType": "uint256",
          "name": "",
          "type": "uint256"
        }
      ],
      "stateMutability": "payable",
      "type": "function",
      "payable": true
    },
    {
      "inputs": [
        {
          "internalType": "uint256",
          "name": "_idSpedizione",
          "type": "uint256"
        },
        {
          "internalType": "uint8",
          "name": "_idEvidenza",
          "type": "uint8"
        },
        {
          "internalType": "bool",
          "name": "_valore",
          "type": "bool"
        }
      ],
      "name": "inviaEvidenza",
      "outputs": [],
      "stateMutability": "nonpayable",
      "type": "function"
    },
    {
      "inputs": [
        {
          "internalType": "uint256",
          "name": "_id",
          "type": "uint256"
        }
      ],
      "name": "validaEPaga",
      "outputs": [],
      "stateMutability": "nonpayable",
      "type": "function"
    }
  ],
  "bytecode": "0x60806040523480156200001157600080fd5b50620000276000801b33620000c760201b60201c565b506200005a7ff56e76769132b846053e5a02e1c9d7d5dfc177dc0f7f274e3984b0b6c8292a0c33620000c760201b60201c565b506200008d7fc29a520d14a1982ef8877f515b1b06d86b6985097a9e042cf6192fa9b4a6a51d33620000c760201b60201c565b50620000c07f341e18cd329b096f016dc89764a06b01b1ccadec74ceedee10b16235f048f6ff33620000c760201b60201c565b506200023c565b6000620000db8383620001ca60201b60201c565b620001bf57600160008085815260200190815260200160002060000160008473ffffffffffffffffffffffffffffffffffffffff1673ffffffffffffffffffffffffffffffffffffffff16815260200190815260200160002060006101000a81548160ff0219169083151502179055506200015b6200023460201b60201c565b73ffffffffffffffffffffffffffffffffffffffff168273ffffffffffffffffffffffffffffffffffffffff16847f2f8788117e7eff1d82e926ec794901d17c78024a50270940304540a733656f0d60405160405180910390a460019050620001c4565b600090505b92915050565b600080600084815260200190815260200160002060000160008373ffffffffffffffffffffffffffffffffffffffff1673ffffffffffffffffffffffffffffffffffffffff16815260200190815260200160002060009054906101000a900460ff16905092915050565b600033905090565b612d2b806200024c6000396000f3fe6080604052600436106101665760003560e01c806378cb0ae5116100d1578063df4e690f1161008a578063f15c75c711610064578063f15c75c71461053f578063f584c6211461056a578063f645065614610595578063fc6b1cad146105c057610166565b8063df4e690f146104aa578063e47ffc16146104eb578063e86779561461051657610166565b806378cb0ae51461039557806391d14854146103c0578063a217fddf146103fd578063a3102cca14610428578063af1dac0414610456578063d547741f1461048157610166565b80633a8f4ea5116101235780633a8f4ea51461028e5780636571c7fe146102b7578063661de754146102e55780636666ba79146103135780636a5f385414610341578063756a4c5a1461036c57610166565b806301ffc9a71461016b5780630ce88ee4146101a8578063248a9ca3146101d657806327a66c13146102135780632f2ff15d1461023c57806336568abe14610265575b600080fd5b34801561017757600080fd5b50610192600480360381019061018d91906120be565b6105f0565b60405161019f9190612106565b60405180910390f35b3480156101b457600080fd5b506101bd61066a565b6040516101cd949392919061213a565b60405180910390f35b3480156101e257600080fd5b506101fd60048036038101906101f891906121b5565b610688565b60405161020a91906121f1565b60405180910390f35b34801561021f57600080fd5b5061023a6004803603810190610235919061229d565b6106a7565b005b34801561024857600080fd5b50610263600480360381019061025e919061234e565b610931565b005b34801561027157600080fd5b5061028c6004803603810190610287919061234e565b610953565b005b34801561029a57600080fd5b506102b560048036038101906102b0919061238e565b6109ce565b005b3480156102c357600080fd5b506102cc610a0b565b6040516102dc949392919061213a565b60405180910390f35b3480156102f157600080fd5b506102fa610a29565b60405161030a949392919061213a565b60405180910390f35b34801561031f57600080fd5b50610328610a47565b604051610338949392919061213a565b60405180910390f35b34801561034d57600080fd5b50610356610a65565b60405161036391906123ce565b60405180910390f35b34801561037857600080fd5b50610393600480360381019061038e919061240d565b610a6a565b005b3480156103a157600080fd5b506103aa610b82565b6040516103b791906121f1565b60405180910390f35b3480156103cc57600080fd5b506103e760048036038101906103e2919061234e565b610ba6565b6040516103f49190612106565b60405180910390f35b34801561040957600080fd5b50610412610c10565b60405161041f91906121f1565b60405180910390f35b34801561043457600080fd5b5061043d610c17565b60405161044d949392919061213a565b60405180910390f35b34801561046257600080fd5b5061046b610c35565b60405161047891906123ce565b60405180910390f35b34801561048d57600080fd5b506104a860048036038101906104a3919061234e565b610c3b565b005b3480156104b657600080fd5b506104d160048036038101906104cc919061244d565b610c5d565b6040516104e29594939291906125db565b60405180910390f35b3480156104f757600080fd5b50610500610df9565b60405161050d91906123ce565b60405180910390f35b34801561052257600080fd5b5061053d6004803603810190610538919061244d565b610dff565b005b34801561054b57600080fd5b506105546111d0565b60405161056191906121f1565b60405180910390f35b34801561057657600080fd5b5061057f6111f4565b60405161058c91906121f1565b60405180910390f35b3480156105a157600080fd5b506105aa611218565b6040516105b7919061263e565b60405180910390f35b6105da60048036038101906105d59190612659565b61121d565b6040516105e791906123ce565b60405180910390f35b60007f7965db0b000000000000000000000000000000000000000000000000000000007bffffffffffffffffffffffffffffffffffffffffffffffffffffffff1916827bffffffffffffffffffffffffffffffffffffffffffffffffffffffff19161480610663575061066282611604565b5b9050919050565b60138060000154908060010154908060020154908060030154905084565b6000806000838152602001908152602001600020600101549050919050565b7f341e18cd329b096f016dc89764a06b01b1ccadec74ceedee10b16235f048f6ff6106d18161166e565b6000601760008681526020019081526020016000209050600060018111156106fc576106fb612489565b5b8160030160009054906101000a900460ff1660018111156107205761071f612489565b5b14610760576040517f08c379a0000000000000000000000000000000000000000000000000000000008152600401610757906126e3565b60405180910390fd5b60018460ff16036107af5760018160040160000160006101000a81548160ff021916908315150217905550828160040160000160056101000a81548160ff02191690831515021790555061092a565b60028460ff16036107fe5760018160040160000160016101000a81548160ff021916908315150217905550828160040160000160066101000a81548160ff021916908315150217905550610929565b60038460ff160361084d5760018160040160000160026101000a81548160ff021916908315150217905550828160040160000160076101000a81548160ff021916908315150217905550610928565b60048460ff160361089c5760018160040160000160036101000a81548160ff021916908315150217905550828160040160000160086101000a81548160ff021916908315150217905550610927565b60058460ff16036108eb5760018160040160000160046101000a81548160ff021916908315150217905550828160040160000160096101000a81548160ff021916908315150217905550610926565b6040517f08c379a000000000000000000000000000000000000000000000000000000000815260040161091d9061274f565b60405180910390fd5b5b5b5b5b5050505050565b61093a82610688565b6109438161166e565b61094d8383611682565b50505050565b61095b611773565b73ffffffffffffffffffffffffffffffffffffffff168173ffffffffffffffffffffffffffffffffffffffff16146109bf576040517f6697b23200000000000000000000000000000000000000000000000000000000815260040160405180910390fd5b6109c9828261177b565b505050565b7ff56e76769132b846053e5a02e1c9d7d5dfc177dc0f7f274e3984b0b6c8292a0c6109f88161166e565b8260018190555081600281905550505050565b600f8060000154908060010154908060020154908060030154905084565b600b8060000154908060010154908060020154908060030154905084565b60038060000154908060010154908060020154908060030154905084565b606481565b7ff56e76769132b846053e5a02e1c9d7d5dfc177dc0f7f274e3984b0b6c8292a0c610a948161166e565b60018360ff1603610ab6578160038181610aae91906128b5565b905050610b7d565b60028360ff1603610ad8578160078181610ad091906128b5565b905050610b7c565b60038360ff1603610afa5781600b8181610af291906128b5565b905050610b7b565b60048360ff1603610b1c5781600f8181610b1491906128b5565b905050610b7a565b60058360ff1603610b3e578160138181610b3691906128b5565b905050610b79565b6040517f08c379a0000000000000000000000000000000000000000000000000000000008152600401610b709061274f565b60405180910390fd5b5b5b5b5b505050565b7ff56e76769132b846053e5a02e1c9d7d5dfc177dc0f7f274e3984b0b6c8292a0c81565b600080600084815260200190815260200160002060000160008373ffffffffffffffffffffffffffffffffffffffff1673ffffffffffffffffffffffffffffffffffffffff16815260200190815260200160002060009054906101000a900460ff16905092915050565b6000801b81565b60078060000154908060010154908060020154908060030154905084565b60015481565b610c4482610688565b610c4d8161166e565b610c57838361177b565b50505050565b60176020528060005260406000206000915090508060000160009054906101000a900473ffffffffffffffffffffffffffffffffffffffff16908060010160009054906101000a900473ffffffffffffffffffffffffffffffffffffffff16908060020154908060030160009054906101000a900460ff169080600401604051806101400160405290816000820160009054906101000a900460ff161515151581526020016000820160019054906101000a900460ff161515151581526020016000820160029054906101000a900460ff161515151581526020016000820160039054906101000a900460ff161515151581526020016000820160049054906101000a900460ff161515151581526020016000820160059054906101000a900460ff161515151581526020016000820160069054906101000a900460ff161515151581526020016000820160079054906101000a900460ff161515151581526020016000820160089054906101000a900460ff161515151581526020016000820160099054906101000a900460ff161515151581525050905085565b60025481565b60006017600083815260200190815260200160002090503373ffffffffffffffffffffffffffffffffffffffff168160010160009054906101000a900473ffffffffffffffffffffffffffffffffffffffff1673ffffffffffffffffffffffffffffffffffffffff1614610ea8576040517f08c379a0000000000000000000000000000000000000000000000000000000008152600401610e9f9061290f565b60405180910390fd5b60006001811115610ebc57610ebb612489565b5b8160030160009054906101000a900460ff166001811115610ee057610edf612489565b5b14610f20576040517f08c379a0000000000000000000000000000000000000000000000000000000008152600401610f17906126e3565b60405180910390fd5b8060040160000160009054906101000a900460ff168015610f5257508060040160000160019054906101000a900460ff165b8015610f6f57508060040160000160029054906101000a900460ff165b8015610f8c57508060040160000160039054906101000a900460ff165b8015610fa957508060040160000160049054906101000a900460ff165b610fe8576040517f08c379a0000000000000000000000000000000000000000000000000000000008152600401610fdf9061297b565b60405180910390fd5b600080610ff48461186d565b91509150605f60ff1682101580156110105750605f60ff168110155b61104f576040517f08c379a000000000000000000000000000000000000000000000000000000000815260040161104690612a0d565b60405180910390fd5b60008360020154905060018460030160006101000a81548160ff021916908360018111156110805761107f612489565b5b02179055508360010160009054906101000a900473ffffffffffffffffffffffffffffffffffffffff1673ffffffffffffffffffffffffffffffffffffffff16857f0a2f22141640c8c85c1a030498ce3f5969a1c8275ccd462eaa1da0d8097003a0836040516110f091906123ce565b60405180910390a360008460010160009054906101000a900473ffffffffffffffffffffffffffffffffffffffff1673ffffffffffffffffffffffffffffffffffffffff168260405161114290612a5e565b60006040518083038185875af1925050503d806000811461117f576040519150601f19603f3d011682016040523d82523d6000602084013e611184565b606091505b50509050806111c8576040517f08c379a00000000000000000000000000000000000000000000000000000000081526004016111bf90612abf565b60405180910390fd5b505050505050565b7f341e18cd329b096f016dc89764a06b01b1ccadec74ceedee10b16235f048f6ff81565b7fc29a520d14a1982ef8877f515b1b06d86b6985097a9e042cf6192fa9b4a6a51d81565b605f81565b60007fc29a520d14a1982ef8877f515b1b06d86b6985097a9e042cf6192fa9b4a6a51d6112498161166e565b6000341161128c576040517f08c379a000000000000000000000000000000000000000000000000000000000815260040161128390612b2b565b60405180910390fd5b6018600081548092919061129f90612b7a565b9190505550600060185490506040518060a001604052803373ffffffffffffffffffffffffffffffffffffffff1681526020018573ffffffffffffffffffffffffffffffffffffffff1681526020013481526020016000600181111561130857611307612489565b5b8152602001604051806101400160405280600015158152602001600015158152602001600015158152602001600015158152602001600015158152602001600015158152602001600015158152602001600015158152602001600015158152602001600015158152508152506017600083815260200190815260200160002060008201518160000160006101000a81548173ffffffffffffffffffffffffffffffffffffffff021916908373ffffffffffffffffffffffffffffffffffffffff16021790555060208201518160010160006101000a81548173ffffffffffffffffffffffffffffffffffffffff021916908373ffffffffffffffffffffffffffffffffffffffff1602179055506040820151816002015560608201518160030160006101000a81548160ff0219169083600181111561144a57611449612489565b5b021790555060808201518160040160008201518160000160006101000a81548160ff02191690831515021790555060208201518160000160016101000a81548160ff02191690831515021790555060408201518160000160026101000a81548160ff02191690831515021790555060608201518160000160036101000a81548160ff02191690831515021790555060808201518160000160046101000a81548160ff02191690831515021790555060a08201518160000160056101000a81548160ff02191690831515021790555060c08201518160000160066101000a81548160ff02191690831515021790555060e08201518160000160076101000a81548160ff0219169083151502179055506101008201518160000160086101000a81548160ff0219169083151502179055506101208201518160000160096101000a81548160ff02191690831515021790555050509050508373ffffffffffffffffffffffffffffffffffffffff163373ffffffffffffffffffffffffffffffffffffffff16827f83e44826fa5d862a2a4cf309c5bf113a2b92a361b73eaf2c7bdfce9b60c7d3cf60405160405180910390a48092505050919050565b60007f01ffc9a7000000000000000000000000000000000000000000000000000000007bffffffffffffffffffffffffffffffffffffffffffffffffffffffff1916827bffffffffffffffffffffffffffffffffffffffffffffffffffffffff1916149050919050565b61167f8161167a611773565b611b80565b50565b600061168e8383610ba6565b61176857600160008085815260200190815260200160002060000160008473ffffffffffffffffffffffffffffffffffffffff1673ffffffffffffffffffffffffffffffffffffffff16815260200190815260200160002060006101000a81548160ff021916908315150217905550611705611773565b73ffffffffffffffffffffffffffffffffffffffff168273ffffffffffffffffffffffffffffffffffffffff16847f2f8788117e7eff1d82e926ec794901d17c78024a50270940304540a733656f0d60405160405180910390a46001905061176d565b600090505b92915050565b600033905090565b60006117878383610ba6565b1561186257600080600085815260200190815260200160002060000160008473ffffffffffffffffffffffffffffffffffffffff1673ffffffffffffffffffffffffffffffffffffffff16815260200190815260200160002060006101000a81548160ff0219169083151502179055506117ff611773565b73ffffffffffffffffffffffffffffffffffffffff168273ffffffffffffffffffffffffffffffffffffffff16847ff6391f5c32d9c69d2a47ea670b442974b53935d1edc7fd64eb21e047a839171b60405160405180910390a460019050611867565b600090505b92915050565b600080600060176000858152602001908152602001600020600401604051806101400160405290816000820160009054906101000a900460ff161515151581526020016000820160019054906101000a900460ff161515151581526020016000820160029054906101000a900460ff161515151581526020016000820160039054906101000a900460ff161515151581526020016000820160049054906101000a900460ff161515151581526020016000820160059054906101000a900460ff161515151581526020016000820160069054906101000a900460ff161515151581526020016000820160079054906101000a900460ff161515151581526020016000820160089054906101000a900460ff161515151581526020016000820160099054906101000a900460ff16151515158152505090506000600154905060008160646119ba9190612bc2565b90506000600254905060008160646119d29190612bc2565b905060006119e286600180611bd1565b90506064806119f19190612bf6565b8386836119fe9190612bf6565b611a089190612bf6565b611a129190612c67565b90506000611a238760016000611bd1565b9050606480611a329190612bf6565b838783611a3f9190612bf6565b611a499190612bf6565b611a539190612c67565b90506000611a648860006001611bd1565b9050606480611a739190612bf6565b858783611a809190612bf6565b611a8a9190612bf6565b611a949190612c67565b90506000611aa489600080611bd1565b9050606480611ab39190612bf6565b858883611ac09190612bf6565b611aca9190612bf6565b611ad49190612c67565b9050600081838587611ae69190612c98565b611af09190612c98565b611afa9190612c98565b905060008103611b1a576000809b509b5050505050505050505050611b7b565b60008160648688611b2b9190612c98565b611b359190612bf6565b611b3f9190612c67565b905060008260648689611b529190612c98565b611b5c9190612bf6565b611b669190612c67565b905081819d509d505050505050505050505050505b915091565b611b8a8282610ba6565b611bcd5780826040517fe2517d3f000000000000000000000000000000000000000000000000000000008152600401611bc4929190612ccc565b60405180910390fd5b5050565b60008060649050600080866000015115611cb65760001515861515148015611bfd575060001515851515145b15611c0f576003600001549150611c8b565b60001515861515148015611c27575060011515851515145b15611c39576003600101549150611c8a565b60011515861515148015611c51575060001515851515145b15611c63576003600201549150611c89565b60011515861515148015611c7b575060011515851515145b15611c8857600380015491505b5b5b5b611c998760a0015183612035565b905060648184611ca99190612bf6565b611cb39190612c67565b92505b866020015115611d925760001515861515148015611cd8575060001515851515145b15611cea576007600001549150611d67565b60001515861515148015611d02575060011515851515145b15611d14576007600101549150611d66565b60011515861515148015611d2c575060001515851515145b15611d3e576007600201549150611d65565b60011515861515148015611d56575060011515851515145b15611d645760076003015491505b5b5b5b611d758760c0015183612035565b905060648184611d859190612bf6565b611d8f9190612c67565b92505b866040015115611e6e5760001515861515148015611db4575060001515851515145b15611dc657600b600001549150611e43565b60001515861515148015611dde575060011515851515145b15611df057600b600101549150611e42565b60011515861515148015611e08575060001515851515145b15611e1a57600b600201549150611e41565b60011515861515148015611e32575060011515851515145b15611e4057600b6003015491505b5b5b5b611e518760e0015183612035565b905060648184611e619190612bf6565b611e6b9190612c67565b92505b866060015115611f4b5760001515861515148015611e90575060001515851515145b15611ea257600f600001549150611f1f565b60001515861515148015611eba575060011515851515145b15611ecc57600f600101549150611f1e565b60011515861515148015611ee4575060001515851515145b15611ef657600f600201549150611f1d565b60011515861515148015611f0e575060011515851515145b15611f1c57600f6003015491505b5b5b5b611f2e87610100015183612035565b905060648184611f3e9190612bf6565b611f489190612c67565b92505b8660800151156120285760001515861515148015611f6d575060001515851515145b15611f7f576013600001549150611ffc565b60001515861515148015611f97575060011515851515145b15611fa9576013600101549150611ffb565b60011515861515148015611fc1575060001515851515145b15611fd3576013600201549150611ffa565b60011515861515148015611feb575060011515851515145b15611ff95760136003015491505b5b5b5b61200b87610120015183612035565b90506064818461201b9190612bf6565b6120259190612c67565b92505b8293505050509392505050565b6000600115158315150361204b5781905061205b565b8160646120589190612bc2565b90505b92915050565b600080fd5b60007fffffffff0000000000000000000000000000000000000000000000000000000082169050919050565b61209b81612066565b81146120a657600080fd5b50565b6000813590506120b881612092565b92915050565b6000602082840312156120d4576120d3612061565b5b60006120e2848285016120a9565b91505092915050565b60008115159050919050565b612100816120eb565b82525050565b600060208201905061211b60008301846120f7565b92915050565b6000819050919050565b61213481612121565b82525050565b600060808201905061214f600083018761212b565b61215c602083018661212b565b612169604083018561212b565b612176606083018461212b565b95945050505050565b6000819050919050565b6121928161217f565b811461219d57600080fd5b50565b6000813590506121af81612189565b92915050565b6000602082840312156121cb576121ca612061565b5b60006121d9848285016121a0565b91505092915050565b6121eb8161217f565b82525050565b600060208201905061220660008301846121e2565b92915050565b61221581612121565b811461222057600080fd5b50565b6000813590506122328161220c565b92915050565b600060ff82169050919050565b61224e81612238565b811461225957600080fd5b50565b60008135905061226b81612245565b92915050565b61227a816120eb565b811461228557600080fd5b50565b60008135905061229781612271565b92915050565b6000806000606084860312156122b6576122b5612061565b5b60006122c486828701612223565b93505060206122d58682870161225c565b92505060406122e686828701612288565b9150509250925092565b600073ffffffffffffffffffffffffffffffffffffffff82169050919050565b600061231b826122f0565b9050919050565b61232b81612310565b811461233657600080fd5b50565b60008135905061234881612322565b92915050565b6000806040838503121561236557612364612061565b5b6000612373858286016121a0565b925050602061238485828601612339565b9150509250929050565b600080604083850312156123a5576123a4612061565b5b60006123b385828601612223565b92505060206123c485828601612223565b9150509250929050565b60006020820190506123e3600083018461212b565b92915050565b600080fd5b600060808284031215612404576124036123e9565b5b81905092915050565b60008060a0838503121561242457612423612061565b5b60006124328582860161225c565b9250506020612443858286016123ee565b9150509250929050565b60006020828403121561246357612462612061565b5b600061247184828501612223565b91505092915050565b61248381612310565b82525050565b7f4e487b7100000000000000000000000000000000000000000000000000000000600052602160045260246000fd5b600281106124c9576124c8612489565b5b50565b60008190506124da826124b8565b919050565b60006124ea826124cc565b9050919050565b6124fa816124df565b82525050565b612509816120eb565b82525050565b610140820160008201516125266000850182612500565b5060208201516125396020850182612500565b50604082015161254c6040850182612500565b50606082015161255f6060850182612500565b5060808201516125726080850182612500565b5060a082015161258560a0850182612500565b5060c082015161259860c0850182612500565b5060e08201516125ab60e0850182612500565b506101008201516125c0610100850182612500565b506101208201516125d5610120850182612500565b50505050565b60006101c0820190506125f1600083018861247a565b6125fe602083018761247a565b61260b604083018661212b565b61261860608301856124f1565b612625608083018461250f565b9695505050505050565b61263881612238565b82525050565b6000602082019050612653600083018461262f565b92915050565b60006020828403121561266f5761266e612061565b5b600061267d84828501612339565b91505092915050565b600082825260208201905092915050565b7f53706564697a696f6e65206e6f6e20696e206174746573610000000000000000600082015250565b60006126cd601883612686565b91506126d882612697565b602082019050919050565b600060208201905081810360008301526126fc816126c0565b9050919050565b7f49442065766964656e7a61206e6f6e2076616c69646f2028312d352900000000600082015250565b6000612739601c83612686565b915061274482612703565b602082019050919050565b600060208201905081810360008301526127688161272c565b9050919050565b6000813561277c8161220c565b80915050919050565b60008160001b9050919050565b60007fffffffffffffffffffffffffffffffffffffffffffffffffffffffffffffffff6127be84612785565b9350801983169250808416831791505092915050565b6000819050919050565b60006127f96127f46127ef84612121565b6127d4565b612121565b9050919050565b6000819050919050565b612813826127de565b61282661281f82612800565b8354612792565b8255505050565b60008101600083018061283f8161276f565b905061284b818461280a565b5050506001810160208301806128608161276f565b905061286c818461280a565b5050506002810160408301806128818161276f565b905061288d818461280a565b5050506003810160608301806128a28161276f565b90506128ae818461280a565b5050505050565b6128bf828261282d565b5050565b7f4e6f6e2073656920696c20636f72726965726500000000000000000000000000600082015250565b60006128f9601383612686565b9150612904826128c3565b602082019050919050565b60006020820190508181036000830152612928816128ec565b9050919050565b7f45766964656e7a65206d616e63616e7469000000000000000000000000000000600082015250565b6000612965601183612686565b91506129708261292f565b602082019050919050565b6000602082019050818103600083015261299481612958565b9050919050565b7f52657175697369746920646920636f6e666f726d697461206e6f6e207375706560008201527f7261746900000000000000000000000000000000000000000000000000000000602082015250565b60006129f7602483612686565b9150612a028261299b565b604082019050919050565b60006020820190508181036000830152612a26816129ea565b9050919050565b600081905092915050565b50565b6000612a48600083612a2d565b9150612a5382612a38565b600082019050919050565b6000612a6982612a3b565b9150819050919050565b7f506167616d656e746f2066616c6c69746f000000000000000000000000000000600082015250565b6000612aa9601183612686565b9150612ab482612a73565b602082019050919050565b60006020820190508181036000830152612ad881612a9c565b9050919050565b7f506167616d656e746f203e203000000000000000000000000000000000000000600082015250565b6000612b15600d83612686565b9150612b2082612adf565b602082019050919050565b60006020820190508181036000830152612b4481612b08565b9050919050565b7f4e487b7100000000000000000000000000000000000000000000000000000000600052601160045260246000fd5b6000612b8582612121565b91507fffffffffffffffffffffffffffffffffffffffffffffffffffffffffffffffff8203612bb757612bb6612b4b565b5b600182019050919050565b6000612bcd82612121565b9150612bd883612121565b9250828203905081811115612bf057612bef612b4b565b5b92915050565b6000612c0182612121565b9150612c0c83612121565b9250828202612c1a81612121565b91508282048414831517612c3157612c30612b4b565b5b5092915050565b7f4e487b7100000000000000000000000000000000000000000000000000000000600052601260045260246000fd5b6000612c7282612121565b9150612c7d83612121565b925082612c8d57612c8c612c38565b5b828204905092915050565b6000612ca382612121565b9150612cae83612121565b9250828201905080821115612cc657612cc5612b4b565b5b92915050565b6000604082019050612ce1600083018561247a565b612cee60208301846121e2565b939250505056fea2646970667358221220d4b21283e953e5d5f3a182590c13508c4d547075111315beaa18f591bb6fdc9264736f6c63430008140033",
  "immutableReferences": {},
  "source": "// SPDX-License-Identifier: MIT\r\npragma solidity ^0.8.19;\r\n\r\nimport \"@openzeppelin/contracts/access/AccessControl.sol\";\r\n\r\n/**\r\n * @title BNCalcolatoreOnChain\r\n * @notice Versione COMPLETA. Gestisce 5 Fatti e 5 Evidenze.\r\n * @dev Corretto per il bug del compilatore (rimossa funzione annidata)\r\n */\r\ncontract BNCalcolatoreOnChain is AccessControl {\r\n\r\n    // === COSTANTI E RUOLI ===\r\n    uint256 public constant PRECISIONE = 100;\r\n    bytes32 public constant RUOLO_ORACOLO = keccak256(\"RUOLO_ORACOLO\");\r\n    bytes32 public constant RUOLO_SENSORE = keccak256(\"RUOLO_SENSORE\");\r\n    bytes32 public constant RUOLO_MITTENTE = keccak256(\"RUOLO_MITTENTE\");\r\n    uint8 public constant SOGLIA_PROBABILITA = 95; // 95%\r\n\r\n    // === 1. MEMORIA PER LE PROBABILIT (CPT) ===\r\n    uint256 public p_F1_T; // P(F1=True)\r\n    uint256 public p_F2_T; // P(F2=True)\r\n\r\n    struct CPT {\r\n        uint256 p_FF; // P(E=T | F1=F, F2=F)\r\n        uint256 p_FT; // P(E=T | F1=F, F2=T)\r\n        uint256 p_TF; // P(E=T | F1=T, F2=F)\r\n        uint256 p_TT; // P(E=T | F1=T, F2=T)\r\n    }\r\n\r\n    CPT public cpt_E1;\r\n    CPT public cpt_E2;\r\n    CPT public cpt_E3;\r\n    CPT public cpt_E4;\r\n    CPT public cpt_E5;\r\n\r\n    // === 2. FUNZIONE DI SETUP ===\r\n    constructor() {\r\n        _grantRole(DEFAULT_ADMIN_ROLE, msg.sender);\r\n        _grantRole(RUOLO_ORACOLO, msg.sender);\r\n        _grantRole(RUOLO_MITTENTE, msg.sender);\r\n        _grantRole(RUOLO_SENSORE, msg.sender);\r\n    }\r\n    \r\n    function impostaProbabilitaAPriori(uint256 _p_F1_T, uint256 _p_F2_T)\r\n        external\r\n        onlyRole(RUOLO_ORACOLO)\r\n    {\r\n        p_F1_T = _p_F1_T;\r\n        p_F2_T = _p_F2_T;\r\n    }\r\n\r\n    function impostaCPT(uint8 _idEvidenza, CPT calldata _cpt)\r\n        external\r\n        onlyRole(RUOLO_ORACOLO)\r\n    {\r\n        if (_idEvidenza == 1) cpt_E1 = _cpt;\r\n        else if (_idEvidenza == 2) cpt_E2 = _cpt;\r\n        else if (_idEvidenza == 3) cpt_E3 = _cpt;\r\n        else if (_idEvidenza == 4) cpt_E4 = _cpt;\r\n        else if (_idEvidenza == 5) cpt_E5 = _cpt;\r\n        else revert(\"ID evidenza non valido (1-5)\");\r\n    }\r\n\r\n    // === 3. MEMORIA PER LE SPEDIZIONI E LE EVIDENZE ===\r\n    enum StatoSpedizione { InAttesa, Pagata }\r\n\r\n    struct StatoEvidenze {\r\n        bool E1_ricevuta;\r\n        bool E2_ricevuta;\r\n        bool E3_ricevuta;\r\n        bool E4_ricevuta;\r\n        bool E5_ricevuta;\r\n        bool E1_valore; // True o False\r\n        bool E2_valore;\r\n        bool E3_valore;\r\n        bool E4_valore;\r\n        bool E5_valore;\r\n    }\r\n\r\n    struct Spedizione {\r\n        address mittente;\r\n        address corriere;\r\n        uint256 importoPagamento;\r\n        StatoSpedizione stato;\r\n        StatoEvidenze evidenze;\r\n    }\r\n\r\n    mapping(uint256 => Spedizione) public spedizioni;\r\n    uint256 private _contatoreIdSpedizione;\r\n\r\n    event SpedizioneCreata(uint256 indexed id, address indexed mittente, address indexed corriere);\r\n    event SpedizionePagata(uint256 indexed id, address indexed corriere, uint256 importo);\r\n\r\n    function creaSpedizione(address _corriere)\r\n        external\r\n        payable\r\n        onlyRole(RUOLO_MITTENTE)\r\n        returns (uint256)\r\n    {\r\n        require(msg.value > 0, \"Pagamento > 0\");\r\n        _contatoreIdSpedizione++;\r\n        uint256 id = _contatoreIdSpedizione;\r\n        spedizioni[id] = Spedizione({\r\n            mittente: msg.sender,\r\n            corriere: _corriere,\r\n            importoPagamento: msg.value,\r\n            stato: StatoSpedizione.InAttesa,\r\n            evidenze: StatoEvidenze(false,false,false,false,false,false,false,false,false,false)\r\n        });\r\n\r\n        emit SpedizioneCreata(id, msg.sender, _corriere);\r\n        return id;\r\n    }\r\n\r\n    // === 4. FUNZIONI DI INVIO EVIDENZE (COMPLETATA) ===\r\n    function inviaEvidenza(uint256 _idSpedizione, uint8 _idEvidenza, bool _valore)\r\n        external\r\n        onlyRole(RUOLO_SENSORE)\r\n    {\r\n        Spedizione storage s = spedizioni[_idSpedizione];\r\n        require(s.stato == StatoSpedizione.InAttesa, \"Spedizione non in attesa\");\r\n        \r\n        if (_idEvidenza == 1) {\r\n            s.evidenze.E1_ricevuta = true;\r\n            s.evidenze.E1_valore = _valore;\r\n        } else if (_idEvidenza == 2) {\r\n            s.evidenze.E2_ricevuta = true;\r\n            s.evidenze.E2_valore = _valore;\r\n        } else if (_idEvidenza == 3) {\r\n            s.evidenze.E3_ricevuta = true;\r\n            s.evidenze.E3_valore = _valore;\r\n        } else if (_idEvidenza == 4) {\r\n            s.evidenze.E4_ricevuta = true;\r\n            s.evidenze.E4_valore = _valore;\r\n        } else if (_idEvidenza == 5) {\r\n            s.evidenze.E5_ricevuta = true;\r\n            s.evidenze.E5_valore = _valore;\r\n        } else revert(\"ID evidenza non valido (1-5)\");\r\n    }\r\n\r\n    // === 5. IL CALCOLATORE (CORRETTO SENZA NESTING) ===\r\n    \r\n    function _leggiValoreCPT(bool _valEvidenza, uint256 _p_T) internal pure returns (uint256) {\r\n        if (_valEvidenza == true) {\r\n            return _p_T; // Ritorna P(E=T | ...)\r\n        } else {\r\n            return PRECISIONE - _p_T; // Ritorna P(E=F | ...)\r\n        }\r\n    }\r\n\r\n    /**\r\n     * @notice Funzione \"appiattita\" per evitare il bug del compilatore solc\r\n     */\r\n    function _calcolaProbabilitaCombinata(StatoEvidenze memory _evidenze, bool _f1, bool _f2) \r\n        internal view returns (uint256) \r\n    {\r\n        uint256 probCombinata = PRECISIONE; \r\n        uint256 p_T; // Probabilit P(E=T | F1, F2)\r\n        uint256 p_e; // Probabilit finale dell'evidenza (T or F)\r\n\r\n        // --- Logica E1 ---\r\n        if (_evidenze.E1_ricevuta) {\r\n            if (_f1 == false && _f2 == false) p_T = cpt_E1.p_FF;\r\n            else if (_f1 == false && _f2 == true)  p_T = cpt_E1.p_FT;\r\n            else if (_f1 == true  && _f2 == false) p_T = cpt_E1.p_TF;\r\n            else if (_f1 == true  && _f2 == true)  p_T = cpt_E1.p_TT;\r\n            p_e = _leggiValoreCPT(_evidenze.E1_valore, p_T);\r\n            probCombinata = (probCombinata * p_e) / PRECISIONE;\r\n        }\r\n        \r\n        // --- Logica E2 ---\r\n        if (_evidenze.E2_ricevuta) {\r\n            if (_f1 == false && _f2 == false) p_T = cpt_E2.p_FF;\r\n            else if (_f1 == false && _f2 == true)  p_T = cpt_E2.p_FT;\r\n            else if (_f1 == true  && _f2 == false) p_T = cpt_E2.p_TF;\r\n            else if (_f1 == true  && _f2 == true)  p_T = cpt_E2.p_TT;\r\n            p_e = _leggiValoreCPT(_evidenze.E2_valore, p_T);\r\n            probCombinata = (probCombinata * p_e) / PRECISIONE;\r\n        }\r\n        \r\n        // --- Logica E3 ---\r\n        if (_evidenze.E3_ricevuta) {\r\n            if (_f1 == false && _f2 == false) p_T = cpt_E3.p_FF;\r\n            else if (_f1 == false && _f2 == true)  p_T = cpt_E3.p_FT;\r\n            else if (_f1 == true  && _f2 == false) p_T = cpt_E3.p_TF;\r\n            else if (_f1 == true  && _f2 == true)  p_T = cpt_E3.p_TT;\r\n            p_e = _leggiValoreCPT(_evidenze.E3_valore, p_T);\r\n            probCombinata = (probCombinata * p_e) / PRECISIONE;\r\n        }\r\n        \r\n        // --- Logica E4 ---\r\n        if (_evidenze.E4_ricevuta) {\r\n            if (_f1 == false && _f2 == false) p_T = cpt_E4.p_FF;\r\n            else if (_f1 == false && _f2 == true)  p_T = cpt_E4.p_FT;\r\n            else if (_f1 == true  && _f2 == false) p_T = cpt_E4.p_TF;\r\n            else if (_f1 == true  && _f2 == true)  p_T = cpt_E4.p_TT;\r\n            p_e = _leggiValoreCPT(_evidenze.E4_valore, p_T);\r\n            probCombinata = (probCombinata * p_e) / PRECISIONE;\r\n        }\r\n        \r\n        // --- Logica E5 ---\r\n        if (_evidenze.E5_ricevuta) {\r\n            if (_f1 == false && _f2 == false) p_T = cpt_E5.p_FF;\r\n            else if (_f1 == false && _f2 == true)  p_T = cpt_E5.p_FT;\r\n            else if (_f1 == true  && _f2 == false) p_T = cpt_E5.p_TF;\r\n            else if (_f1 == true  && _f2 == true)  p_T = cpt_E5.p_TT;\r\n            p_e = _leggiValoreCPT(_evidenze.E5_valore, p_T);\r\n            probCombinata = (probCombinata * p_e) / PRECISIONE;\r\n        }\r\n\r\n        return probCombinata;\r\n    }\r\n\r\n    function _calcolaProbabilitaPosteriori(uint256 _id) \r\n        internal view \r\n        returns (uint256, uint256) \r\n    {\r\n        StatoEvidenze memory evidenze = spedizioni[_id].evidenze;\r\n        \r\n        uint256 pF1_T = p_F1_T;\r\n        uint256 pF1_F = PRECISIONE - pF1_T;\r\n        uint256 pF2_T = p_F2_T;\r\n        uint256 pF2_F = PRECISIONE - pF2_T;\r\n\r\n        // 1. Termine TT: P(E | T,T) * P(T) * P(T)\r\n        uint256 termine_TT = _calcolaProbabilitaCombinata(evidenze, true, true);\r\n        termine_TT = (termine_TT * pF1_T * pF2_T) / (PRECISIONE * PRECISIONE);\r\n\r\n        // 2. Termine TF: P(E | T,F) * P(T) * P(F)\r\n        uint256 termine_TF = _calcolaProbabilitaCombinata(evidenze, true, false);\r\n        termine_TF = (termine_TF * pF1_T * pF2_F) / (PRECISIONE * PRECISIONE);\r\n        \r\n        // 3. Termine FT: P(E | F,T) * P(F) * P(T)\r\n        uint256 termine_FT = _calcolaProbabilitaCombinata(evidenze, false, true);\r\n        termine_FT = (termine_FT * pF1_F * pF2_T) / (PRECISIONE * PRECISIONE);\r\n\r\n        // 4. Termine FF: P(E | F,F) * P(F) * P(F)\r\n        uint256 termine_FF = _calcolaProbabilitaCombinata(evidenze, false, false);\r\n        termine_FF = (termine_FF * pF1_F * pF2_F) / (PRECISIONE * PRECISIONE);\r\n\r\n        uint256 normalizzatore = termine_TT + termine_TF + termine_FT + termine_FF;\r\n        \r\n        if (normalizzatore == 0) return (0, 0);\r\n\r\n        // P(F1=T | E) = (termine_TT + termine_TF) / normalizzatore\r\n        uint256 probF1_True = ((termine_TT + termine_TF) * PRECISIONE) / normalizzatore;\r\n\r\n        // P(F2=T | E) = (termine_TT + termine_FT) / normalizzatore\r\n        uint256 probF2_True = ((termine_TT + termine_FT) * PRECISIONE) / normalizzatore;\r\n\r\n        return (probF1_True, probF2_True);\r\n    }\r\n\r\n    // === 6. FUNZIONE DI PAGAMENTO (COMPLETATA) ===\r\n    \r\n    function validaEPaga(uint256 _id) external {\r\n        Spedizione storage s = spedizioni[_id];\r\n        require(s.corriere == msg.sender, \"Non sei il corriere\");\r\n        require(s.stato == StatoSpedizione.InAttesa, \"Spedizione non in attesa\");\r\n        \r\n        require(\r\n            s.evidenze.E1_ricevuta && s.evidenze.E2_ricevuta &&\r\n            s.evidenze.E3_ricevuta && s.evidenze.E4_ricevuta &&\r\n            s.evidenze.E5_ricevuta, \r\n            \"Evidenze mancanti\"\r\n        );\r\n        \r\n        (uint256 probF1, uint256 probF2) = _calcolaProbabilitaPosteriori(_id);\r\n        \r\n        require(\r\n            probF1 >= SOGLIA_PROBABILITA && probF2 >= SOGLIA_PROBABILITA,\r\n            \"Requisiti di conformita non superati\"\r\n        );\r\n        \r\n        uint256 importo = s.importoPagamento;\r\n        s.stato = StatoSpedizione.Pagata; \r\n\r\n        emit SpedizionePagata(_id, s.corriere, importo);\r\n\r\n        (bool success, ) = s.corriere.call{value: importo}(\"\");\r\n        require(success, \"Pagamento fallito\");\r\n    }\r\n}",
  "sourcePath": "C:\\Users\\andre\\Documents\\GitHub\\ProgettoSoftwareSecurity\\contracts\\BNCalcolatoreOnChain.sol",
  "compiler": {
    "name": "solc",
    "version": "0.8.20+commit.a1b79de6.Emscripten.clang"
  },
  "schemaVersion": "3.4.16",
  "updatedAt": "2025-11-24T11:45:18.881Z",
  "networkType": "ethereum",
  "devdoc": {
    "details": "Corretto per il bug del compilatore (rimossa funzione annidata)",
    "errors": {
      "AccessControlBadConfirmation()": [
        {
          "details": "The caller of a function is not the expected one. NOTE: Don't confuse with {AccessControlUnauthorizedAccount}."
        }
      ],
      "AccessControlUnauthorizedAccount(address,bytes32)": [
        {
          "details": "The `account` is missing a role."
        }
      ]
    },
    "events": {
      "RoleAdminChanged(bytes32,bytes32,bytes32)": {
        "details": "Emitted when `newAdminRole` is set as ``role``'s admin role, replacing `previousAdminRole` `DEFAULT_ADMIN_ROLE` is the starting admin for all roles, despite {RoleAdminChanged} not being emitted to signal this."
      },
      "RoleGranted(bytes32,address,address)": {
        "details": "Emitted when `account` is granted `role`. `sender` is the account that originated the contract call. This account bears the admin role (for the granted role). Expected in cases where the role was granted using the internal {AccessControl-_grantRole}."
      },
      "RoleRevoked(bytes32,address,address)": {
        "details": "Emitted when `account` is revoked `role`. `sender` is the account that originated the contract call:   - if using `revokeRole`, it is the admin role bearer   - if using `renounceRole`, it is the role bearer (i.e. `account`)"
      }
    },
    "kind": "dev",
    "methods": {
      "getRoleAdmin(bytes32)": {
        "details": "Returns the admin role that controls `role`. See {grantRole} and {revokeRole}. To change a role's admin, use {_setRoleAdmin}."
      },
      "grantRole(bytes32,address)": {
        "details": "Grants `role` to `account`. If `account` had not been already granted `role`, emits a {RoleGranted} event. Requirements: - the caller must have ``role``'s admin role. May emit a {RoleGranted} event."
      },
      "hasRole(bytes32,address)": {
        "details": "Returns `true` if `account` has been granted `role`."
      },
      "renounceRole(bytes32,address)": {
        "details": "Revokes `role` from the calling account. Roles are often managed via {grantRole} and {revokeRole}: this function's purpose is to provide a mechanism for accounts to lose their privileges if they are compromised (such as when a trusted device is misplaced). If the calling account had been revoked `role`, emits a {RoleRevoked} event. Requirements: - the caller must be `callerConfirmation`. May emit a {RoleRevoked} event."
      },
      "revokeRole(bytes32,address)": {
        "details": "Revokes `role` from `account`. If `account` had been granted `role`, emits a {RoleRevoked} event. Requirements: - the caller must have ``role``'s admin role. May emit a {RoleRevoked} event."
      },
      "supportsInterface(bytes4)": {
        "details": "Returns true if this contract implements the interface defined by `interfaceId`. See the corresponding https://eips.ethereum.org/EIPS/eip-165#how-interfaces-are-identified[ERC section] to learn more about how these ids are created. This function call must use less than 30 000 gas."
      }
    },
    "title": "BNCalcolatoreOnChain",
    "version": 1
  },
  "userdoc": {
    "kind": "user",
    "methods": {},
    "notice": "Versione COMPLETA. Gestisce 5 Fatti e 5 Evidenze.",
    "version": 1
  }
}